:020000040800F2
:100000008008002099010008010900089F060008E7
:10001000A3060008D1040008111800080000000021
:10002000000000000000000000000000710E000849
:100030006D05000800000000270C000829100008CA
:10004000B3010008B3010008B3010008B3010008C0
:10005000B3010008B3010008B3010008B3010008B0
:10006000B3010008B3010008B3010008B3010008A0
:10007000B3010008B3010008B3010008B301000890
:10008000B3010008B3010008B3010008B301000880
:10009000B3010008B3010008B3010008B301000870
:1000A000B30100088D100008B3010008B301000877
:1000B000B3010008B3010008B3010008B301000850
:1000C000B3010008B3010008B3010008B301000840
:1000D000B3010008C51400084D150008B30100085D
:1000E000B3010008B3010008B301000800F002F8F2
:1000F00000F042F80AA090E8000C82448344AAF180
:100100000107DA4501D100F037F8AFF2090EBAE87D
:100110000F0013F0010F18BFFB1A43F0010318473B
:10012000301E0000501E0000103A24BF78C878C16D
:10013000FAD8520724BF30C830C144BF04680C60ED
:10014000704700000023002400250026103A28BF35
:1001500078C1FBD8520728BF30C148BF0B60704739
:10016000642900F0A580732900F04D8100207047BC
:100170001FB51FBD10B510BD00F078F91146FFF78F
:10018000F7FF01F0C5FB00F096F903B4FFF7F2FFAB
:1001900003BC01F03FFB00000948804709480047C5
:1001A000FEE7FEE7FEE7FEE7FEE7FEE7FEE7FEE727
:1001B000FEE7FEE704480549054A064B7047000084
:1001C0002D100008ED0000088002002080080020AB
:1001D0008004002080040020704700000FB4044910
:1001E00010B503AA029800F013F910BC5DF814FBD7
:1001F000300000202DE9F0410E4604460020206228
:100200002046E168884730B3252805D0D4E901218C
:100210009047206A401CF2E7E168204600278847A3
:10022000050018D0A5F14100192802D820354FF457
:1002300000673246294620462760FFF791FF40B10C
:10024000012804D0F61D26F007060836D8E7361D2B
:10025000D6E72846DAE7206ABDE8F08170B50C469B
:100260000546012A05D02878800600D5EA690023D2
:1002700002E0012305E05B1C934202D2E05C00280F
:10028000F9D1A869E618C01AA861286A184428623A
:100290002846AFF3008004E0D5E9012114F8010BF2
:1002A0009047B442F8D32846AFF3008070BD0000F9
:1002B0002DE9F0410646002410687529314616A53F
:1002C00010D0AFF30080002802DA404213A507E007
:1002D00031688A0701D512A502E0490704D511A5A6
:1002E000012401E0AFF3008000210A2206F1240777
:1002F00009E0B0FBF2FCB0FBF2F302FB1C00303073
:1003000078541846491C0028F3D123462A46304623
:10031000BDE8F04100F00CB8000000002D00000026
:100320002B000000200000007047704770477047A6
:100330002DE9F0470D4699469246044600F12408FF
:100340000168880604D5E06921F01001216000E011
:100350000120A84201DD471B00E00027A1697A19AE
:1003600002EB0900081AA0612078C00602D42046DA
:10037000AFF30080002608E0D4E901211AF8060056
:100380009047206A401C761C20624E45F4DB2078A2
:10039000C0060AD52046AFF3008006E0D4E901216B
:1003A00030209047206A401C2062381EA7F10107C8
:1003B000F4DC07E0D4E9012118F805009047206A31
:1003C000401C2062281EA5F10105F3DC2046AFF396
:1003D00000802078000602D50220BDE8F0870120C9
:1003E000FBE710B5436913B1AFF3008001E0FFF7FD
:1003F00035FF012010BD127800F124010A7000229F
:100400004A700122EDE711684FF0FF32E9E7000082
:10041000074B70B50D467B4400F011F804462846A2
:1004200000F020F810B14FF0FF3070BD204670BDD5
:10043000DB14000001694A1C02610878704700B5AE
:100440008FB0CDE901310021059105497944CDE90D
:10045000031011466846FFF7CDFE0FB000BD000047
:10046000E5FFFFFF007B00F080007047754600F05D
:100470002BF8AE4605006946534620F00700854636
:1004800018B020B5FFF796FEBDE820404FF00006FB
:100490004FF000074FF000084FF0000B21F007016C
:1004A000AC46ACE8C009ACE8C009ACE8C009ACE8AF
:1004B000C0098D46704710B50446AFF30080204652
:1004C000BDE81040FFF761BE004870471C020020E5
:1004D00000BFFEE710B504462146002000F0E3F817
:1004E0002146002000F0FFF82146002000F01CF912
:1004F0002146002000F036F910BD10B50446214613
:10050000012000F0D0F82146012000F0ECF821464F
:10051000012000F009F92146012000F023F910BD67
:1005200010B504462146002000F0BDF82146012008
:1005300000F0D9F82146012000F0F6F8214600200D
:1005400000F010F910BD10B504462146012000F05E
:10055000AAF82146002000F0C6F82146002000F04D
:10056000E3F82146012000F0FDF810BD70472DE9A9
:10057000F041024600250026002000230024002729
:1005800091F803C00CF00F0591F803C00CF0100CAB
:10059000BCF1000F03D091F802C04CEA050591F8B8
:1005A00000C0BCF1000F31D0146800202BE04FF0E8
:1005B000010C0CFA00F3B1F800C00CEA03069E42ED
:1005C00020D183004FF00F0C0CFA03F7BC4305FA5F
:1005D00003FC4CEA040491F803C0BCF1280F06D1D7
:1005E0004FF0010C0CFA00FCC2F814C00AE091F8BC
:1005F00003C0BCF1480F05D14FF0010C0CFA00FC10
:10060000C2F810C0401C0828D1D31460B1F800C053
:10061000BCF1FF0F34DD546800202EE000F1080C1F
:100620004FF0010808FA0CF3B1F800C00CEA030619
:100630009E4221D183004FF00F0C0CFA03F7BC430C
:1006400005FA03FC4CEA040491F803C0BCF1280F3E
:1006500005D100F1080C08FA0CF8C2F8148091F8E2
:1006600003C0BCF1480F07D100F1080C4FF001089E
:1006700008FA0CF8C2F81080401C0828CED3546049
:10068000BDE8F0810246002093680B400BB10120C9
:1006900000E000207047416170470161704700BF72
:1006A000FEE700BFFEE770B504460D46B5F57A7F5C
:1006B00001DB4FF47A7554B100214FF0804000F017
:1006C000A7FE29464FF0804000F0A0FE0AE04CB99A
:1006D00000214FF0804000F099FE29464FF0804005
:1006E00000F096FE70BD70B504460D46B5F57A7FF4
:1006F00001DB4FF47A7554B100214FF0804000F0D7
:1007000089FE29464FF0804000F086FE0AE04CB991
:1007100000214FF0804000F07FFE29464FF08040DE
:1007200000F078FE70BD000070B504460D46B5F5CA
:100730007A7F01DB4FF47A7544B10021084800F05C
:1007400065FE2946064800F063FE08E03CB900213A
:10075000034800F05DFE2946014800F057FE70BDD9
:100760000008004070B504460D46B5F57A7F01DB00
:100770004FF47A7544B10021084800F04DFE294637
:10078000064800F047FE08E03CB90021034800F0AD
:1007900041FE2946014800F03FFE70BD00080040C0
:1007A00000B589B00121084600F03EFA012104207D
:1007B00000F04AFA18208DF823000F20ADF8200031
:1007C00003208DF8220008A94A48FFF7D0FE4FF019
:1007D000804000F0DFFC0020ADF81A00ADF81600F4
:1007E00040F2E730ADF8180040F2CF20ADF8140029
:1007F00000208DF81C0005A94FF0804000F010FE8D
:1008000001A800F0F9FD6020ADF804000020ADF86B
:100810000C000120ADF806000020ADF80A0001A987
:100820004FF0804000F0BCFC01A94FF0804000F088
:1008300003FD01A94FF0804000F050FD01A94FF0E9
:10084000804000F09BFD0121880700F07DFC012124
:10085000042000F0E9F90121082000F0F5F9182042
:100860008DF823004FF47070ADF8200003208DF850
:10087000220008A92048FFF77AFE204800F08AFCF1
:100880000020ADF81A00ADF8160040F2E730ADF8E0
:10089000180040F2CF20ADF8140000208DF81C00A5
:1008A00005A9164800F0BCFD01A800F0A5FD6020D8
:1008B000ADF804000020ADF80C000120ADF80600F2
:1008C0000020ADF80A0001A90C4800F069FC01A95C
:1008D0000A4800F0B1FC01A9084800F0FFFC01A99A
:1008E000064800F04BFD0121044800F02DFC09B042
:1008F00000BD000000080140000C0140000800405D
:100900007047000070B5002100230F22C47804B3A3
:10091000154C246804F4E064C4F5E064210AC1F1D4
:100920000403CA40447804FA03F184781440214354
:1009300009010E4C0678A155047804F01F05012426
:10094000AC4005786D11AD0005F1E025C5F800411A
:1009500009E0047804F01F050124AC40044D06783A
:10096000761145F8264070BD0CED00E000E400E093
:1009700080E100E002490143024A11607047000033
:100980000000FA050CED00E010B510210148FFF75A
:1009900084FE10BD0008014010B510210148FFF78A
:1009A0007AFE10BD000801402DE9F0410446012502
:1009B0000026002720E004F0010010B100F02CF820
:1009C00001E000F031F8641000F0DEF8052000F0DE
:1009D0006BFF00F0E1F8052000F066FF00F0D4F8AE
:1009E00000F010F808B17019C6B26806050E1020A4
:1009F00000F05AFF781CC7B2072FDCDD3046BDE897
:100A0000F081000010B580210248FFF73BFE04464C
:100A1000204610BD0008014010B540210148FFF7F5
:100A20003CFE10BD0008014010B540210148FFF711
:100A300032FE10BD0008014010B5FFF7ADFF1020D9
:100A400000F032FF0120FFF7AFFF4320FFF7ACFFBC
:100A50000020FFF7A9FF0120FFF7A6FF0020FFF706
:100A6000A3FF0020FFF7A0FF0020FFF79DFF00205D
:100A7000FFF79AFF0020FFF797FFFFF785FF102091
:100A800000F012FF10BD10B5FFF786FF102000F038
:100A90000BFF0120FFF788FF4320FFF785FF0020B1
:100AA000FFF782FF0020FFF77FFF5A20FFF77CFF50
:100AB0005A20FFF779FF5A20FFF776FF5A20FFF7F9
:100AC00073FF5A20FFF770FFFFF75EFF102000F062
:100AD000EBFE10BD08B50121042000F0B5F8702030
:100AE000ADF8000010208DF8030003208DF80200FF
:100AF00069460848FFF73BFD8020ADF8000048201C
:100B00008DF8030003208DF8020069460148FFF7C5
:100B10002EFD08BD0008014010B5FFF7DBFF00F017
:100B200033F8FFF731FF00F03FF800F03DF800F038
:100B30003BF8FFF781FF00F052F8FFF7A4FF00F049
:100B400001F810BD10B50024FFF726FF00BF0FE02D
:100B5000022C06DA0A49085DFFF726FF0949085505
:100B600004E00020FFF720FF06490855601CC4B2CE
:100B7000092CEDDBFFF708FF102000F095FE10BDFB
:100B8000590000200402002010B520210148FFF781
:100B900084FD10BD0008014010B520210148FFF779
:100BA0007AFD10BD0008014010B5FFF7F5FE1020DA
:100BB00000F07AFE0120FFF7F7FE4220FFF7F4FE77
:100BC0000020FFF7F1FE0020FFF7EEFE0020FFF708
:100BD000EBFEFFF7D9FE102000F066FE10BD10B549
:100BE000FFF7DAFE0120FFF7DFFE4420FFF7DCFE0F
:100BF0000020FFF7D9FE0120FFF7D6FEEE20FFF719
:100C0000D3FE0020FFF7D0FE0020FFF7CDFE00202E
:100C1000FFF7CAFE0020FFF7C7FEFFF7B5FE102062
:100C200000F042FE10BD704729B1064AD269024366
:100C3000044BDA6104E0034AD2698243014BDA6172
:100C4000704700000010024029B1064A9269024331
:100C5000044B9A6104E0034A92698243014B9A6112
:100C6000704700000010024030B50021002200242F
:100C700000232D4D6D6805F00C0121B1042905D02C
:100C8000082923D105E0294D056022E0274D0560A4
:100C90001FE0254D6D6805F47012234D6D6805F455
:100CA0008034022505EB92421CB9214D5543056065
:100CB0000BE01D4D6D6805F400351DB11C4D55430D
:100CC000056002E0194D5543056002E0174D0560CF
:100CD00000BF00BF144D6D6805F0F0010909154D06
:100CE0006B5C0568DD4045600F4D6D6805F4E061A3
:100CF000090A104D6B5C4568DD4085600A4D6D68E2
:100D000005F46051C90A0B4D6B5C4568DD40C56058
:100D1000054D6D6805F44041890B074D6B5CC56856
:100D2000B5FBF3F5056130BD0010024000127A00FA
:100D300000093D00140000202400002000B50346F7
:100D400003480078C01AC3B2184600F05BF800BD33
:100D50004400002000B5034603480078C01AC3B21F
:100D6000184600F073F800BD4800002000B50346A7
:100D7000034800781844C3B2184600F043F800BD99
:100D80004400002000B50346034800781844C3B26D
:100D9000184600F05BF800BD4800002000B503468F
:100DA00003480078C01AC3B2184600F03DF800BDF1
:100DB0004C00002000B50346034800781844C3B235
:100DC000184600F031F800BD4C00002008B50121A4
:100DD0000820FFF739FF10208DF803004FF4604022
:100DE000ADF8000003208DF8020069460448FFF7C3
:100DF000BEFB4FF460410248FFF74FFC08BD000006
:100E0000000C014007494978814202DD05494878D4
:100E100005E00449C978814201DA0249C878014AEB
:100E2000107070474400002007494978814202DD74
:100E30000549487805E00449C978814201DA024948
:100E4000C878014A107070474C0000200749497863
:100E5000814202DD0549487805E00449C9788142AC
:100E600001DA0249C878014A107070474800002032
:100E70007047000010B5FFF7A9FF00F013F806490E
:100E80008878FFF7BFFF05498878FFF7CDFF044951
:100E90008878FFF7DBFF10BD440000204C000020E5
:100EA000480000201FB50121C802FFF7CDFE1948F8
:100EB00000F070F90020ADF80A00ADF80600092036
:100EC000ADF808004720ADF8040000208DF80C00B4
:100ED00001A9104800F0A4FA01210E4800F02EF9F3
:100EE000012211460B4800F04CF919208DF8000042
:100EF00001208DF8030002208DF8010001208DF8FB
:100F000002006846FFF7FEFC0121024800F01CF9D0
:100F10001FBD0000002C014010B500F001F810BD0D
:100F20000CB50020019000903348006840F48030F8
:100F30003149086000BF3048006800F4003000907C
:100F40000198401C0190009818B90198B0F5A06F65
:100F5000F1D12948006800F4003010B10120009060
:100F600001E0002000900098012843D12348006848
:100F700040F01000214908600846006820F0030096
:100F800008600846006840F0020008601A4840689F
:100F9000194948600846406848600846406840F47F
:100FA000806048600846406820F47C10486008462D
:100FB000406840F4E81048600846006840F08070DF
:100FC000086000BF0C48006800F000700028F9D0ED
:100FD0000948406820F00300074948600846406817
:100FE00040F00200486000BF0348406800F00C0079
:100FF0000828F9D10CBD000000100240002002407A
:10100000042808D14FF0E021096941F004014FF0B4
:10101000E022116107E04FF0E021096921F00401AD
:101020004FF0E022116170477047000010B513487F
:10103000006840F001001149086008464068104906
:1010400008400E494860084600680E4908400B49B0
:1010500008600846006820F4802008600846406860
:1010600020F4FE0048604FF41F008860FFF754FF33
:101070004FF000600449086010BD000000100240FD
:101080000000FFF8FFFFF6FE08ED00E010B50121BB
:10109000244800F065F8002842D00121214800F0E2
:1010A00050F821480088401C1F49088008460088E5
:1010B000B0F5FA6F01DD002008801C4800781A495D
:1010C0000988884205DD4FF400511948FFF7E5FA19
:1010D00004E04FF400511648FFF7DDFA1548007898
:1010E00011490988884205DD4FF480411048FFF717
:1010F000D4FA04E04FF480410D48FFF7CCFA0E48D3
:10110000007809490988884205DD4FF40041084804
:10111000FFF7C3FA04E04FF400410548FFF7BBFABC
:1011200010BD0000002C01405000002044000020B1
:10113000000C0140480000204C000020CA430282FD
:101140007047CA430282704721B1028842F001020F
:10115000028004E002884FF6FE731A400280704756
:1011600030B50246002000230024158A05EA010359
:10117000958905EA010413B10CB1012000E00020BB
:1011800030BD1AB183890B43838102E083898B438D
:101190008381704701894FF6F872114001817047D1
:1011A00070B5002400220023058C4FF6FE763540F2
:1011B0000584028C8388048B4FF68F752C40B51EF6
:1011C0002C400D882C43751E2A400D892A434D88DA
:1011D0002A43144DA8420BD0134DA84208D0134DFA
:1011E000A84205D0124DA84202D0124DA84213D1F8
:1011F0004FF6F7752A404D892A434FF6FB752A4072
:101200008D882A434FF6FF652B404FF6FF552B4044
:101210008D892B43CD892B4383800483CD8885869C
:10122000028470BD002C01400034014000400140A8
:10123000004401400048014070B500240022002312
:10124000058C4FF6EF7635400584028C8388048B3D
:1012500048F6FF752C404FF6FF452C400D884FF6A1
:10126000FF7606EA05252C434FF6DF752A400D89E7
:1012700006EA05152A434D8806EA05152A43154D49
:10128000A84202D0144DA8421DD14FF67F752A40C6
:101290004D894FF6FF7606EA05152A434FF6BF75CE
:1012A0002A408D8806EA05152A434FF6FF352B4064
:1012B0004FF2FF752B408D8906EA85052B43CD89BA
:1012C00006EA85052B4383800483CD880587028445
:1012D00070BD0000002C01400034014070B50024B6
:1012E00000220023058C4FF6FF6635400584028CF2
:1012F0008388848B4FF68F752C404FF6FC752C40FD
:101300000D882C434FF6FF552A400D894FF6FF7686
:1013100006EA05252A434D8806EA05252A43154D88
:10132000A84202D0144DA8421DD14FF2FF752A40A9
:101330004D894FF6FF7606EA05252A434FF6FF351D
:101340002A408D8806EA05252A434EF6FF752B4074
:101350004DF6FF752B408D8906EA05152B43CD8987
:1013600006EA05152B4383808483CD888587028414
:1013700070BD0000002C01400034014070B5002217
:1013800000230024058C4EF6FF7635400584038C3F
:101390008488828B48F6FF752A404FF6FF452A4025
:1013A0000D884FF6FF7606EA05252A434DF6FF75B0
:1013B0002B400D8906EA05352B434D8806EA053595
:1013C0002B430B4DA84202D00A4DA84208D14BF640
:1013D000FF752C408D894FF6FF7606EA85152C4364
:1013E00084808283CD88A0F84050038470BD0000C3
:1013F000002C0140003401400021018041808180A7
:10140000C180018141818181C1817047818670479E
:101410000187704781877047A0F84010704700002F
:10142000002202881D4B98420ED01D4B98420BD0D3
:10143000B0F1804F08D01B4B984205D01A4B984210
:1014400002D01A4B984204D14FF68F731A404B8842
:101450001A43174B984207D0164B984204D04FF6C8
:10146000FF431A40CB881A4302808B8883850B8800
:1014700003850A4B98420BD0094B984208D00E4B7B
:10148000984205D00D4B984202D00D4B984201D1A5
:101490000B7A03860123838270470000002C0140F1
:1014A000003401400004004000080040000C0040EF
:1014B0000010004000140040004001400044014082
:1014C0000048014010B540F225511D4800F0C7F812
:1014D00010B31B4800F05AF9C4B21A48008800F44F
:1014E0000040C8B91748008800F4804060B10A2C59
:1014F00003D000201349088020E01248008840F4FF
:1015000000401049088019E00D2C06D10D480088D4
:1015100040F480400B49088010E00A480088C0F37E
:101520000D0009490C5407480088401C05490880F3
:1015300008460088C72801DD0020088010BD000093
:1015400000380140340000203C01002010B5002488
:101550000821244800F076F830B10821214800F035
:101560004DF8204800F012F920211E4800F06AF8DA
:10157000002836D040F225511A4800F048F81948A2
:10158000001D0088C4B2242C05D101201649087022
:1015900000201649086014480078012803D1144837
:1015A0001249096844541048007801280AD1232CB4
:1015B00008D11049087000200B4908700B480068DA
:1015C0000D49086009480068401C08490860084641
:1015D0000068502805DB00200860034908700549B1
:1015E000087010BD004400403C000020380000207E
:1015F000EC0000202C0000204000002001F40072CC
:10160000B2F5007F00D100BFCA430280704710B519
:101610000022002340F66A14A14200D100BF0A1242
:1016200001249440A3B2DC43048010BD21B182891F
:1016300042F40052828104E082894DF6FF731A4021
:101640008281704702460020B1F5007F00D100BFC3
:1016500013880B400BB1012000E00020704770B5EB
:101660000246002400230025002040F66A16B142FD
:1016700000D100BFC1F3421501F01F03012606FA95
:1016800003F3012D02D19689334006E0022D02D1E9
:10169000168A334001E0968A33400C12012606FA7E
:1016A00004F41688344013B10CB1012000E000208E
:1016B00070BD00002DE9F04786B005460E460024B7
:1016C000A24600BFA1460027B08900B100BF2F4647
:1016D0002C8A4CF6FF700440F08804432C82AC89BD
:1016E0004EF6F3100440B0883189084371890843ED
:1016F0000443AC81AC8A4FF6FF400440B0890443F8
:10170000AC8201A8FFF7B0FA1F48874202D1DDF88A
:1017100010A001E0DDF80CA0A88900F4004040B161
:101720000AEBCA0000EB0A1031684900B0FBF1F87F
:1017300007E00AEBCA0000EB0A1031688900B0FB31
:10174000F1F86420B8FBF0F004012009642101FBEA
:101750001089A88900F4004040B1322000EBC90094
:10176000B0FBF1F000F00700044308E0322000EB8A
:1017700009106421B0FBF1F000F00F0004432C814C
:1017800006B0BDE8F08700000038014001468888B7
:10179000C0F308007047000010B586B00446012170
:1017A00044F20400FFF750FA4FF40070ADF8140053
:1017B00003208DF8160018208DF8170005A912488F
:1017C000FEF7D5FE4FF48060ADF8140004208DF8CC
:1017D000170005A90C48FEF7CAFE01940020ADF8D9
:1017E0000800ADF80A00ADF80C00ADF810000820B4
:1017F000ADF80E0001A90548FFF75CFF0121034881
:10180000FFF714FF06B010BD00080140003801408A
:1018100000BFFEE700BF704710B56FF00400FFF790
:10182000EFFB0A4800680A49B0FBF1F0094908706B
:101830000846007800EB4001C1EBC0104FF6FF7185
:1018400001EAC0000449088010BD0000000000202B
:1018500000127A00280000202A0000200146114AC8
:1018600012884A434FF0E0235A6100229A611A46D7
:10187000126942F001021A6100BF4FF0E0221069C4
:1018800000F001021AB100F48032002AF5D04FF0C6
:10189000E022126922F001024FF0E0231A610022D7
:1018A0009A6170472A0000200146114A12784A4383
:1018B0004FF0E0235A6100229A611A46126942F001
:1018C00001021A6100BF4FF0E022106900F001022E
:1018D0001AB100F48032002AF5D04FF0E0221269EC
:1018E00022F001024FF0E0231A6100229A61704752
:1018F0002800002000BF054A128802F04002002A9A
:10190000F9D0C2B2014B1B1D1A807047003801404C
:101910004FF4A060FFF72EF8FFF77EFF4FF416504C
:10192000FFF73AFFFFF7F8F8FEF73AFFFFF7A2FAE2
:10193000C94B1722C9A1CCA0FEF750FCD3A0FEF7DB
:101940004DFC88E100F072FAE049087000F0A0FA5E
:10195000DF49087008460078DE49097888420BD0D4
:10196000BD4B1E22BDA1C0A0FEF738FCDAA0FEF7D9
:1019700035FC0020FEF7C1FDD5480078012875D15F
:10198000B54B2322B5A1B8A0FEF728FCD8A0FEF7DE
:1019900025FC072000F036FA0446082000F032FA51
:1019A0000746FF2C0ADCAC4B2922ACA1AEA0FEF707
:1019B00015FC2146D4A0FEF711FC08E0A64B2B2213
:1019C000A6A1A9A0FEF70AFCD2A0FEF707FCFF2FF4
:1019D0000ADCA14B2E22A1A1A3A0FEF7FFFB21460A
:1019E000D0A0FEF7FBFB08E09B4B30229BA19EA002
:1019F000FEF7F4FBCEA0FEF7F1FB27B94FF47A70A7
:101A0000FEF77BFD28E0FF2F04D14FF47A70FEF73C
:101A100061FD21E024B94FF47A70FEF781FD1BE0EF
:101A2000FF2C04D14FF47A70FEF78DFD14E00B20EB
:101A300000F0EEF920B14FF47A70FEF771FD0BE083
:101A4000092000F0E5F920B14FF47A70FEF77BFD34
:101A500002E00020FEF751FD052000F0D3F9054615
:101A6000FF2D04D10320FFF781F904E021E015B92F
:101A70000320FFF763F9062000F0C4F906461EB9FB
:101A80000320FFF797F904E0FF2E02D10320FFF7B0
:101A900085F90C2000F0BCF918B10320FFF772F9AA
:101AA00006E00A2000F0B4F910B10320FFF752F964
:101AB000CAE087480078022878D1674B5A2267A18C
:101AC00069A0FEF78BFB9EA0FEF788FB7F4800789D
:101AD00000286CD0052000F09BF968B15E4B5D22B8
:101AE0005EA161A0FEF77AFB98A0FEF777FB4FF4AA
:101AF0007A70FEF702FD67E0072000F089F968B10F
:101B0000554B602255A158A0FEF768FB95A0FEF743
:101B100065FB4FF47A70FEF7DDFC55E0082000F01D
:101B200077F968B14C4B63224CA14FA0FEF756FBEE
:101B300092A0FEF753FB4FF47A70FEF7F1FC43E0FE
:101B4000062000F065F968B1434B662243A146A028
:101B5000FEF744FB8FA0FEF741FB4FF47A70FEF7CF
:101B6000F2FC31E00B2000F053F968B13A4B6922E6
:101B70003AA13DA0FEF732FB8DA0FEF72FFB4FF4FC
:101B80007A70FEF7CDFC1FE0092000F041F978B132
:101B9000314B6C2231A134A0FEF720FB89A0FEF767
:101BA0001DFB4FF47A70FEF7CEFC0DE049E044E0F7
:101BB000294B6F2229A12CA0FEF710FB86A0FEF76F
:101BC0000DFB0020FEF799FC0E2000F021F960B11A
:101BD000214B752221A124A0FEF700FB83A0FEF774
:101BE000FDFA0320FFF7C2F82EE0102000F010F9F4
:101BF00018B10320FFF7A2F826E00D2000F008F945
:101C000018B10320FFF7D6F81EE00F2000F000F90E
:101C100018B10320FFF7C2F816E00C2000F0F8F826
:101C200018B10320FFF7AEF80EE00A2000F0F0F83C
:101C300050B10320FFF78EF806E00020FEF75DFCB0
:101C400002E00020FEF759FC214800782149087085
:101C50001420FFF703FE75E6491F000855736572EF
:101C60005C6D61696E2E63003C3C46696C653A258B
:101C70007320204C696E653A2564202046756E639A
:101C800074696F6E3A25733E3E2000004E564943FC
:101C9000B7D6D7E9CDEAB1CF0D0A505332B3F5CA62
:101CA000BCBBAFCDEAB1CF0D0AB5E7BBFAB3F5CAFD
:101CB000BCBBAFCDEAB1CF0D0AB6E6BBFAB3F5CAED
:101CC000BCBBAFCDEAB1CF0D0A000000E800002098
:101CD000E9000020EA000020505332C4A3CABDD35B
:101CE000D0B1E4A3ACCDA3B3B5A3A10D0A0000000D
:101CF000BAECB5C6C4A3CABDA3A8C4A3C4E2CAE4CF
:101D0000B3F6A3A90D0A00007073325F6C783A2510
:101D1000640D0A007073325F6C78D6B5D2ECB3A351
:101D2000000000007073325F6C793A25640D0A0080
:101D30007073325F6C79D6B5D2ECB3A300000000AB
:101D4000C2CCB5C6C4A3CABD0D0A00005053425F41
:101D50005041445F55502050726573736564210D86
:101D60000A0000005053425F5041445F444F574EB9
:101D70002050726573736564210D0A005053425FF1
:101D80005041445F4C4546542050726573736564FE
:101D9000210D0A005053425F5041445F5249474869
:101DA000542050726573736564210D0A00000000B1
:101DB0005053425F4C312050726573736564210D3E
:101DC0000A0000005053425F4C322050726573731A
:101DD0006564210D0A0000004361725F466F7277EF
:101DE0006172642830290D0A00000000BBFAD0B5EA
:101DF000B1DBBFD8D6C62D2D5053425F5245440D9E
:101E00000A00000001460148405C704704020020BF
:101E10000146012901DA00207047481E024A02EB00
:101E2000C0000079F8E700006400002070B50025CC
:101E3000FEF788FE1348C0781249097940EA01206C
:101E400011490860042419E0104810F83400401EBD
:101E5000012101FA00F00C490968084038B9012055
:101E60000A4901EBC4014860681CC5B204E00020C7
:101E7000064901EBC4014860601CC4B2102CE3DBCE
:101E8000284670BD04020020540000206400002099
:101E900010B515484078732803D101201349087004
:101EA0001EE011484078412803D102200F490870F4
:101EB00016E000200D4908700D480068401C0C49D0
:101EC00008600846006864280ADD00200860094BA5
:101ED000792209A10CA0FEF781F914A0FEF77EF982
:101EE0000248007810BD00000402002058000020C5
:101EF000E40000203C1F000848617264776172654D
:101F00005C7073322E6300003C3C46696C653A2578
:101F10007320204C696E653A2564202046756E63F7
:101F200074696F6E3A25733E3E200000CAD6B1FA3E
:101F3000D0C5BAC5B6AACAA70D0A00007073325F31
:101F40006D6F64655F676574006D61696E000000A8
:101F5000701F000800000020EC00000028010008AD
:101F60005C200008EC0000209407000044010008F9
:101F700000A24A0400000000000000000102030467
:101F8000060708090000000001020304010203041F
:101F9000060708090204060800000000000000000F
:101FA0000000000000000000000000000000000031
:101FB00000000000C882C8FA966496FAB478B4FAB1
:101FC00000000000000000000001420000000000CE
:101FD00000000000010000000000000002000000FE
:101FE00000000000030000000000000004000000EA
:101FF00000000000050000000000000006000000D6
:1020000000000000070000000000000008000000C1
:102010000000000009000000000000000A000000AD
:10202000000000000B000000000000000C00000099
:10203000000000000D000000000000000E00000085
:10204000000000000F000000000000001000000071
:0C20500000000000000000000000000084
:04000005080000ED02
:00000001FF
