:020000040800F2
:10000000C00500200501000811070008830300084F
:10001000C103000879010008A512000800000000D3
:100020000000000000000000000000005D0B000860
:1000300061020008000000009D080008710C000823
:100040001F0100081F0100081F0100081F01000810
:100050001F0100081F0100081F0100081F01000800
:100060001F0100081F0100081F0100081F010008F0
:100070001F0100081F0100081F0100081F010008E0
:100080001F0100081F0100081F0100081F010008D0
:100090001F0100081F0100081F0100081F010008C0
:1000A0001F0100081F0100081F0100081F010008B0
:1000B0001F0100081F0100081F0100081F010008A0
:1000C0001F0100081F0100081F0100081F01000890
:1000D0001F010008311000081F0100081F0100085F
:1000E0001F0100081F0100081F010008DFF810D0E1
:1000F00000F030F800480047A1150008AFF3008079
:10010000C00500200648804706480047FEE7FEE796
:10011000FEE7FEE7FEE7FEE7FEE7FEE7FEE7FEE7B7
:10012000750C0008ED00000830B50B4601460020B4
:100130002022012409E021FA02F59D4205D303FAA9
:1001400002F5491B04FA02F52844151EA2F101022A
:10015000F1DC30BD064C074D06E0E06840F00103DD
:1001600094E8070098471034AC42F6D3FFF7C2FF7B
:10017000E01800080019000800BFFEE710B50446AB
:100180002146002000F01EF92146002000F038F939
:100190002146002000F052F92146002000F06EF9BF
:1001A00010BD10B504462146012000F00BF9214690
:1001B000012000F025F92146012000F03FF92146F9
:1001C000012000F05BF910BD10B504462146012066
:1001D00000F0F8F82146002000F012F92146012035
:1001E00000F02CF92146002000F048F910BD10B5B0
:1001F00004462146002000F0E5F82146012000F0E9
:10020000FFF82146002000F019F92146012000F0F6
:1002100035F910BD10B504462146002000F0D2F893
:100220002146002000F0ECF82146012000F006F9FC
:100230002146012000F022F910BD10B504462146E8
:10024000012000F0BFF82146012000F0D9F8214636
:10025000002000F0F3F82146002000F00FF910BD57
:1002600070472DE9F04102460025002600200023BA
:100270000024002791F803C00CF00F0591F803C08B
:100280000CF0100CBCF1000F03D091F802C04CEA46
:10029000050591F800C0BCF1000F31D014680020B2
:1002A0002BE04FF0010C0CFA00F3B1F800C00CEA9F
:1002B00003069E4220D183004FF00F0C0CFA03F787
:1002C000BC4305FA03FC4CEA040491F803C0BCF1FA
:1002D000280F06D14FF0010C0CFA00FCC2F814C034
:1002E0000AE091F803C0BCF1480F05D14FF0010CB2
:1002F0000CFA00FCC2F810C0401C0828D1D31460CE
:10030000B1F800C0BCF1FF0F34DD546800202EE0CE
:1003100000F1080C4FF0010808FA0CF3B1F800C026
:100320000CEA03069E4221D183004FF00F0C0CFA19
:1003300003F7BC4305FA03FC4CEA040491F803C03C
:10034000BCF1280F05D100F1080C08FA0CF8C2F82E
:10035000148091F803C0BCF1480F07D100F1080CDC
:100360004FF0010808FA0CF8C2F81080401C082869
:10037000CED35460BDE8F0810AB1016100E0416173
:10038000704700BFFEE700000B48806940F0100096
:10039000094988610948406820F4700007494860AD
:1003A0000846406840F4401048600846C06840F481
:1003B0000050C8607047000000100240001001406B
:1003C00000BFFEE770B504460D46B5F57A7F01DB48
:1003D0004FF47A7544B10021084800F0C9FD294660
:1003E000064800F0C3FD08E03CB90021034800F0D6
:1003F000BDFD2946014800F0BBFD70BD0004004072
:1004000070B504460D46B5F57A7F01DB4FF47A7579
:1004100044B10021084800F0A7FD2946064800F035
:10042000A1FD08E03CB90021034800F09BFD2946EE
:10043000014800F099FD70BD0004004070B504460D
:100440000D46B5F57A7F01DB4FF47A7554B1002182
:100450004FF0804000F08AFD29464FF0804000F0C8
:1004600087FD0AE04CB900214FF0804000F080FD8C
:1004700029464FF0804000F079FD70BD70B504460C
:100480000D46B5F57A7F01DB4FF47A7554B1002142
:100490004FF0804000F066FD29464FF0804000F0AC
:1004A00063FD0AE04CB900214FF0804000F05CFD94
:1004B00029464FF0804000F055FD70BD00B589B071
:1004C0000121042000F0FCF90121082000F0F8F9D6
:1004D0000121084600F0E4F90121022000F0E0F9D2
:1004E00018208DF823000320ADF820008DF822009D
:1004F00008A93848FFF7B5FE18208DF82300CF2053
:10050000ADF8200003208DF8220008A93248FFF73B
:10051000A8FE324800F0EAFB4FF0804000F0E6FB16
:1005200005A800F07BFD0020ADF81A00ADF816001C
:1005300040F2CF20ADF8140040F2E730ADF81800DB
:1005400000208DF81C0005A9244800F015FD05A920
:100550004FF0804000F010FD01A800F0F9FC602091
:10056000ADF804000020ADF80C000120ADF8060045
:100570000020ADF80A0001A9184800F0BDFB01A950
:10058000164800F005FC01A9144800F053FC01A92D
:10059000124800F09FFC01A94FF0804000F0ACFB36
:1005A00001A94FF0804000F0F3FB01A94FF080401B
:1005B00000F040FC01A94FF0804000F08BFC0121CD
:1005C000064800F087FB0121880700F083FB09B093
:1005D00000BD0000000C0140000801400004004084
:1005E00000B587B00121082000F06AF901218803D5
:1005F00000F056F910208DF81B000002ADF818002D
:1006000003208DF81A0006A92348FFF72AFE1820B8
:100610008DF81B004FF42040ADF8180003208DF832
:100620001A0006A91C48FFF71CFE48208DF81B0085
:100630004FF48040ADF8180003208DF81A0006A989
:100640001548FFF70EFE4FF48270ADF8060000204B
:10065000ADF80400ADF808008020ADF81200382095
:10066000ADF810000220ADF80A000020ADF80C0033
:100670004FF40070ADF80E000720ADF8140001A98A
:10068000064800F04DFA0121044800F02FFA01203D
:1006900000F032F807B000BD000C01400038004007
:1006A00010B5002000F028F810BD10B5012000F0B2
:1006B00023F810BD10B5044600BF02210D4800F01C
:1006C00021FA0128F9D1102000F032FF2146094813
:1006D00000F024FA00BF0121064800F013FA0128B7
:1006E000F9D1102000F024FF024800F014FAC0B243
:1006F00010BD00000038004010B5044622464FF4FB
:1007000080510248FFF738FE10BD0000000C014088
:100710007047000002490143024A1160704700001F
:100720000000FA050CED00E0002004E00021034A7F
:100730001154411CC8B20928F8DB7047A4010020FD
:1007400010B5FFF7ADFF0120FFF7B4FF4320FFF71F
:10075000B1FF0020FFF7AEFF0120FFF7ABFF002045
:10076000FFF7A8FF0020FFF7A5FF0020FFF7A2FF7B
:100770000020FFF79FFF0020FFF79CFFFFF795FF8A
:1007800010BD10B5FFF78CFF0120FFF793FF43204A
:10079000FFF790FF0020FFF78DFF0020FFF78AFF93
:1007A0005A20FFF787FF5A20FFF784FF5A20FFF7F0
:1007B00081FF5A20FFF77EFF5A20FFF77BFFFFF7EC
:1007C00074FF10BD10B5FFF70BFF00F031F800F01B
:1007D0002FF800F02DF800F02BF800F029F8FFF7C3
:1007E000AFFF00F03AF800F038F8FFF7CAFF10BD8D
:1007F00010B50024FFF754FF00BF0FE0022C06DA0B
:100800000949085DFFF756FF0849085504E0002034
:10081000FFF750FF05490855601CC4B2092CEDDBF9
:10082000FFF743FF10BD000035000020A4010020A9
:1008300010B5FFF735FF0120FFF73CFF4220FFF71F
:1008400039FF0020FFF736FF0020FFF733FF0020BD
:10085000FFF730FFFFF729FF10BD10B5FFF720FFAE
:100860000120FFF727FF4420FFF724FF0020FFF7B8
:1008700021FF0120FFF71EFF0320FFF71BFF0020D1
:10088000FFF718FF0020FFF715FF0020FFF712FF0A
:100890000020FFF70FFFFFF708FF10BD70470000B3
:1008A00029B1064AD2690243044BDA6104E0034AE3
:1008B000D2698243014BDA617047000000100240A8
:1008C00029B1064A92690243044B9A6104E0034A43
:1008D00092698243014B9A61704700000010024008
:1008E00030B500210022002400232D4D6D6805F055
:1008F0000C0121B1042905D0082923D105E0294D97
:10090000056022E0274D05601FE0254D6D6805F468
:100910007012234D6D6805F48034022505EB924278
:100920001CB9214D554305600BE01D4D6D6805F464
:1009300000351DB11C4D5543056002E0194D55436E
:10094000056002E0174D056000BF00BF144D6D68E3
:1009500005F0F0010909154D6B5C0568DD40456047
:100960000F4D6D6805F4E061090A104D6B5C456838
:10097000DD4085600A4D6D6805F46051C90A0B4D74
:100980006B5C4568DD40C560054D6D6805F4404110
:10099000890B074D6B5CC568B5FBF3F5056130BD90
:1009A0000010024000127A0000093D0014000020EF
:1009B0002400002010B5044603480078001BC4B290
:1009C000204600F03FF810BDC400002010B50446DA
:1009D00003480078001BC4B2204600F06BF810BD3D
:1009E000C800002010B50446034800782044C4B273
:1009F000204600F027F810BDC400002010B50446C2
:100A0000034800782044C4B2204600F053F810BDDB
:100A1000C800002010B5044603480078001BC4B28B
:100A2000204600F02BF810BDCC00002010B5044685
:100A3000034800782044C4B2204600F01FF810BDDF
:100A4000CC00002010B504460A484078A04202DDE0
:100A50000848447805E00748C078A04201DA054814
:100A6000C47804490C7008460178034800F07CFA09
:100A700010BD0000C40000200008004010B504466E
:100A80000A484078A04202DD0848447805E007485B
:100A9000C078A04201DA0548C47804490C700846C1
:100AA0000178034800F062FA10BD0000CC0000207D
:100AB0000008004010B504460A484078A04202DD14
:100AC0000848447805E00748C078A04201DA0548A4
:100AD000C47804490C7008460178034800F042FAD3
:100AE00010BD0000C80000200008004021B10288AD
:100AF00042F04002028004E002884FF6BF731A40C1
:100B0000028070470246002013890B400BB1012080
:100B100000E0002070470146888970478181704756
:100B200010B50022028802F441520B884C882343FE
:100B30008C882343CC8823430C8923434C8923434B
:100B40008C892343CC8923431A430280838B4FF241
:100B5000FF74234083830B8A038210BD704710B556
:100B600000F002F810BD00000CB5002001900090CC
:100B70003348006840F480303149086000BF304895
:100B8000006800F4003000900198401C019000982B
:100B900018B90198B0F5A06FF1D12948006800F4A8
:100BA000003010B10120009001E00020009000987A
:100BB000012843D12348006840F010002149086013
:100BC0000846006820F0030008600846006840F00E
:100BD000020008601A4840681949486008464068A1
:100BE00048600846406840F48060486008464068B5
:100BF00020F47C1048600846406840F4E8104860E3
:100C00000846006840F08070086000BF0C4800682B
:100C100000F000700028F9D00948406820F0030077
:100C2000074948600846406840F00200486000BF3D
:100C30000348406800F00C000828F9D10CBD000002
:100C40000010024000200240042808D14FF0E021AB
:100C5000096941F004014FF0E022116107E04FF013
:100C6000E021096921F004014FF0E0221161704791
:100C70007047000010B51348006840F001001149AA
:100C8000086008464068104908400E494860084618
:100C900000680E4908400B4908600846006820F4C7
:100CA000802008600846406820F4FE0048604FF449
:100CB0001F008860FFF753FF4FF000600449086091
:100CC00010BD0000001002400000FFF8FFFFF6FE1C
:100CD00008ED00E021B1028842F00102028004E048
:100CE00002884FF6FE731A400280704701894FF662
:100CF000F87211400181704770B500240022002372
:100D0000058C4FF6FE7635400584028C8388048B73
:100D10004FF68F752C40B51E2C400D882C43751E48
:100D20002A400D892A434D882A43144DA8420BD0EE
:100D3000134DA84208D0134DA84205D0124DA84229
:100D400002D0124DA84213D14FF6F7752A404D89B3
:100D50002A434FF6FB752A408D882A434FF6FF65DC
:100D60002B404FF6FF552B408D892B43CD892B43CC
:100D700083800483CD888586028470BD002C014069
:100D8000003401400040014000440140004801405F
:100D900070B5002400220023058C4FF6EF76354015
:100DA0000584028C8388048B48F6FF752C404FF62F
:100DB000FF452C400D884FF6FF7606EA05252C43AB
:100DC0004FF6DF752A400D8906EA05152A434D883E
:100DD00006EA05152A43154DA84202D0144DA84233
:100DE0001DD14FF67F752A404D894FF6FF7606EAF2
:100DF00005152A434FF6BF752A408D8806EA05156A
:100E00002A434FF6FF352B404FF2FF752B408D895B
:100E100006EA85052B43CD8906EA85052B438380A9
:100E20000483CD880587028470BD0000002C01403A
:100E30000034014070B5002400220023058C4FF6D9
:100E4000FF6635400584028C8388848B4FF68F754E
:100E50002C404FF6FC752C400D882C434FF6FF5567
:100E60002A400D894FF6FF7606EA05252A434D886C
:100E700006EA05252A43154DA84202D0144DA84282
:100E80001DD14FF2FF752A404D894FF6FF7606EAD5
:100E900005252A434FF6FF352A408D8806EA0525A9
:100EA0002A434EF6FF752B404DF6FF752B408D897A
:100EB00006EA05152B43CD8906EA05152B438380E9
:100EC0008483CD888587028470BD0000002C01409A
:100ED0000034014070B5002200230024058C4EF63A
:100EE000FF7635400584038C8488828B48F6FF7535
:100EF0002A404FF6FF452A400D884FF6FF7606EA56
:100F000005252A434DF6FF752B400D8906EA053568
:100F10002B434D8806EA05352B430B4DA84202D0E2
:100F20000A4DA84208D14BF6FF752C408D894FF62B
:100F3000FF7606EA85152C4384808283CD88A0F84D
:100F40004050038470BD0000002C0140003401407B
:100F50000021018041808180C180018141818181A6
:100F6000C1817047818670470187704781877047CC
:100F7000A0F8401070470000002202881D4B9842E4
:100F80000ED01D4B98420BD0B0F1804F08D01B4BB8
:100F9000984205D01A4B984202D01A4B984204D17D
:100FA0004FF68F731A404B881A43174B984207D05D
:100FB000164B984204D04FF6FF431A40CB881A4391
:100FC00002808B8883850B8803850A4B98420BD05F
:100FD000094B984208D00E4B984205D00D4B9842D1
:100FE00002D00D4B984201D10B7A038601238382F4
:100FF00070470000002C0140003401400004004014
:1010000000080040000C00400010004000140040A8
:101010000040014000440140004801404FF6FF718C
:10102000818000210180C1804180017270470000F1
:1010300010B540F225511D4800F057F810B31B4879
:1010400000F0EAF8C4B21A48008800F40040C8B9B9
:101050001748008800F4804060B10A2C03D00020BB
:101060001349088020E01248008840F400401049ED
:10107000088019E00D2C06D10D48008840F480400E
:101080000B49088010E00A480088C0F30D000949A8
:101090000C5407480088401C054908800846008811
:1010A000C72801DD0020088010BD00000038014085
:1010B0002C000020DC00002021B1828942F4005283
:1010C000828104E082894DF6FF731A408281704765
:1010D00002460020B1F5007F00D100BF13880B400D
:1010E0000BB1012000E00020704770B502460024DB
:1010F00000230025002040F66A16B14200D100BF4F
:10110000C1F3421501F01F03012606FA03F3012D76
:1011100002D19689334006E0022D02D1168A33406F
:1011200001E0968A33400C12012606FA04F4168870
:10113000344013B10CB1012000E0002070BD00006C
:101140002DE9F04786B005460E460024A24600BFB2
:10115000A1460027B08900B100BF2F462C8A4CF66B
:10116000FF700440F08804432C82AC894EF6F310E3
:101170000440B08831890843718908430443AC8135
:10118000AC8A4FF6FF400440B0890443AC8201A80A
:10119000FFF7A6FB1F48874202D1DDF810A001E04F
:1011A000DDF80CA0A88900F4004040B10AEBCA00A9
:1011B00000EB0A1031684900B0FBF1F807E00AEBD8
:1011C000CA0000EB0A1031688900B0FBF1F8642016
:1011D000B8FBF0F004012009642101FB1089A88903
:1011E00000F4004040B1322000EBC900B0FBF1F048
:1011F00000F00700044308E0322000EB09106421EE
:10120000B0FBF1F000F00F0004432C8106B0BDE804
:10121000F08700000038014001468888C0F30800CC
:101220007047C1F3080282807047000010B586B095
:101230000446012144F20400FFF742FB4FF4007022
:10124000ADF8140003208DF8160018208DF8170053
:1012500005A91248FFF705F84FF48060ADF81400B7
:1012600004208DF8170005A90C48FEF7FAFF019439
:101270000020ADF80800ADF80A00ADF80C00ADF89C
:1012800010000820ADF80E0001A90548FFF758FF2F
:1012900001210348FFF710FF06B010BD0008014010
:1012A0000038014000BFFEE70FB4054B10B503A99D
:1012B000044A029800F018F810BC5DF814FB000016
:1012C0007D150008D800002002E008C8121F08C1E0
:1012D000002AFAD170477047002001E001C1121FB7
:1012E000002AFBD1704700002DE9FF4F8BB09A46D2
:1012F0000F460546002606E025280BD052460D99DC
:1013000090476D1C761C28780028F5D10FB0304628
:10131000BDE8F08F0024A0460122604900E00443AC
:1013200015F8013F203B02FA03F00842F7D1287874
:101330002E2817D115F8010F44F004042A280ED0E6
:101340006FF02F022878A0F1300109290AD808EBA4
:10135000880102EB410100EB01086D1CF2E757F830
:10136000048B6D1C287869283ED006DC0028CDD07F
:1013700063280BD0642804D136E0732810D0752878
:101380004BD052460D999047761C85E017F8040B18
:101390008DF8000000208DF80100E946012003E0EF
:1013A00057F8049B4FF0FF3061074FF0000401D461
:1013B0000AE0641C44450DDA8442FADB19F8041093
:1013C0000029F6D106E0641C8442FCDB19F8041005
:1013D0000029F8D1264404E019F8010B52460D9972
:1013E0009047641EF8D257E001CF4FF00A0B002857
:1013F00002DA40422D2102E0210504D52B218DF88F
:101400002410012103E0E10705D02021F7E70DF1C9
:10141000200908910CE00021F9E701CF4FF00A0BF9
:10142000F9E75946FEF780FE01F1300209F8012D77
:101430000028F6D1ADEB090000F1200B600701D4C4
:101440004FF00108D84502DDA8EB0B0000E00020BA
:101450008046002406E009A85246005D0D99904799
:10146000641C761C08988442F5DB04E03020524668
:101470000D999047761CB8F10001A8F10108F5DC40
:1014800005E019F8010B52460D999047761CBBF107
:101490000001ABF1010BF4DC6D1C34E709280100FD
:1014A00010B56FF00400FFF7CFFB0A4800680A4947
:1014B000B0FBF1F0094908700846007800EB4001E4
:1014C000C1EBC0104FF6FF7101EAC000044908806B
:1014D00010BD00000000002000127A00280000204B
:1014E0002A0000200146114A12884A434FF0E023A7
:1014F0005A6100229A611A46126942F001021A6189
:1015000000BF4FF0E022106900F001021AB100F4B0
:101510008032002AF5D04FF0E022126922F0010259
:101520004FF0E0231A6100229A6170472A000020E0
:101530000146114A12784A434FF0E0235A610022D3
:101540009A611A46126942F001021A6100BF4FF017
:10155000E022106900F001021AB100F48032002A82
:10156000F5D04FF0E022126922F001024FF0E023A3
:101570001A6100229A6170472800002070B5044665
:101580000D46E1B20548FFF74CFE00BF802103483D
:10159000FFF79EFD0028F9D0204670BD00380140BD
:1015A0004FF4A060FFF7B6F8FFF77AFF4FF4E13091
:1015B000FFF73CFEFEF7E8FE574B192257A15AA051
:1015C000FFF772FE61A0FFF76FFEFFF7FBF8FEF773
:1015D00075FF514B1C2251A153A0FFF765FE60A07F
:1015E000FFF762FE96E000F0E7F86249087000F04D
:1015F00017F96149087008460078604909788842FF
:1016000002D00020FEF7CDFD5B480078012877D19D
:10161000072000F0BDF85A490870082000F0B8F81B
:10162000584908700846007820B94FF47A70FEF7E0
:10163000B8FD2EE053480078FF2804D14FF47A70AB
:10164000FEF79CFD25E04E48007820B94FF47A70F3
:10165000FEF7BAFD1DE04A480078FF2804D14FF498
:101660007A70FEF7C4FD14E00B2000F097F820B16B
:101670004FF47A70FEF7CEFD0BE0092000F08EF8F3
:1016800020B14FF47A70FEF7D8FD02E00020FEF79B
:1016900088FD052000F07CF83B490870084600787A
:1016A000FF2803D10320FFF79DF905E036480078B5
:1016B00010B90320FFF77EF9062000F069F83349DE
:1016C00008700846007818B90320FFF7AFF906E064
:1016D0002E480078FF2802D10320FFF79BF90C2049
:1016E00000F05CF820B10320FFF788F90BE007E079
:1016F0000A2000F053F830B10320FFF767F902E049
:101700000020FEF74EFD1C4800781C49087014208C
:10171000FFF7E8FE67E70000D91800085573657207
:101720005C6D61696E2E63003C3C46696C653A25D0
:101730007320204C696E653A2564202046756E63DF
:1017400074696F6E3A25733E3E20000031313131AD
:101750003131313131313131313131310D0A000026
:101760003232323232323232323232323232323259
:101770000D0A0000D4000020D5000020D600002073
:10178000D0000020D1000020D2000020D300002093
:1017900001460148405C7047A40100200146012930
:1017A00001DA00207047481E024A02EBC0000079AF
:1017B000F8E700004000002070B50025FEF7B4FFF8
:1017C000FFF716F81348C0781249097940EA01205A
:1017D00011490860042419E0104810F83400401E34
:1017E000012101FA00F00C490968084038B90120CC
:1017F0000A4901EBC4014860681CC5B204E000203E
:10180000064901EBC4014860601CC4B2102CE3DB44
:10181000284670BDA40100203000002040000020B8
:1018200010B515484078732803D10120134908707A
:101830001EE011484078412803D102200F4908706A
:1018400016E000200D4908700D480068401C0C4946
:1018500008600846006864280ADD00200860094B1B
:10186000C02209A10CA0FFF71FFD14A0FFF71CFD6B
:101870000248007810BD0000A401002034000020C0
:10188000C0000020CC18000848617264776172655E
:101890005C7073322E6300003C3C46696C653A25EF
:1018A0007320204C696E653A2564202046756E636E
:1018B00074696F6E3A25733E3E200000CAD6B1FAB5
:1018C000D0C5BAC5B6AACAA70D0A00007073325FA8
:1018D0006D6F64655F676574006D61696E0000001F
:1018E0000019000800000020DC000000C8120008F9
:1018F000DC190008DC000020E4040000D812000815
:1019000000A24A04000000000000000001020304DD
:101910000607080900000000010203040102030495
:101920000607080902040608000000000000000085
:101930000000000000014200000000000000000064
:101940000100000000000000020000000000000094
:101950000300000000000000040000000000000080
:10196000050000000000000006000000000000006C
:101970000700000000000000080000000000000058
:1019800009000000000000000A0000000000000044
:101990000B000000000000000C0000000000000030
:1019A0000D000000000000000E000000000000001C
:1019B0000F00000000000000100000000000000008
:1019C00000000000C882C8FA966496FAB478B4FAA7
:0C19D0000000000000000000000000000B
:04000005080000ED02
:00000001FF
