:020000040800F2
:10000000C805002005010008110700088303000847
:10001000C10300087901000845160008000000002F
:10002000000000000000000000000000450E000875
:1000300061020008000000009D080008111000087F
:100040001F0100081F0100081F0100081F01000810
:100050001F0100081F0100081F0100081F01000800
:100060001F0100081F0100081F0100081F010008F0
:100070001F0100081F0100081F0100081F010008E0
:100080001F0100081F0100081F0100081F010008D0
:100090001F0100081F0100081F0100081F010008C0
:1000A0001F0100081F0100081F0100081F010008B0
:1000B0001F0100081F0100081F0100081F010008A0
:1000C0001F0100081F0100081F0100081F01000890
:1000D0001F010008D11300081F0100081F010008BC
:1000E0001F0100081F0100081F010008DFF810D0E1
:1000F00000F030F80048004741190008AFF30080D5
:10010000C80500200648804706480047FEE7FEE78E
:10011000FEE7FEE7FEE7FEE7FEE7FEE7FEE7FEE7B7
:1001200015100008ED00000830B50B460146002010
:100130002022012409E021FA02F59D4205D303FAA9
:1001400002F5491B04FA02F52844151EA2F101022A
:10015000F1DC30BD064C074D06E0E06840F00103DD
:1001600094E8070098471034AC42F6D3FFF7C2FF7B
:10017000281E0008481E000800BFFEE710B5044610
:100180002146002000F01EF92146002000F038F939
:100190002146002000F052F92146002000F06EF9BF
:1001A00010BD10B504462146012000F00BF9214690
:1001B000012000F025F92146012000F03FF92146F9
:1001C000012000F05BF910BD10B504462146012066
:1001D00000F0F8F82146002000F012F92146012035
:1001E00000F02CF92146002000F048F910BD10B5B0
:1001F00004462146002000F0E5F82146012000F0E9
:10020000FFF82146002000F019F92146012000F0F6
:1002100035F910BD10B504462146002000F0D2F893
:100220002146002000F0ECF82146012000F006F9FC
:100230002146012000F022F910BD10B504462146E8
:10024000012000F0BFF82146012000F0D9F8214636
:10025000002000F0F3F82146002000F00FF910BD57
:1002600070472DE9F04102460025002600200023BA
:100270000024002791F803C00CF00F0591F803C08B
:100280000CF0100CBCF1000F03D091F802C04CEA46
:10029000050591F800C0BCF1000F31D014680020B2
:1002A0002BE04FF0010C0CFA00F3B1F800C00CEA9F
:1002B00003069E4220D183004FF00F0C0CFA03F787
:1002C000BC4305FA03FC4CEA040491F803C0BCF1FA
:1002D000280F06D14FF0010C0CFA00FCC2F814C034
:1002E0000AE091F803C0BCF1480F05D14FF0010CB2
:1002F0000CFA00FCC2F810C0401C0828D1D31460CE
:10030000B1F800C0BCF1FF0F34DD546800202EE0CE
:1003100000F1080C4FF0010808FA0CF3B1F800C026
:100320000CEA03069E4221D183004FF00F0C0CFA19
:1003300003F7BC4305FA03FC4CEA040491F803C03C
:10034000BCF1280F05D100F1080C08FA0CF8C2F82E
:10035000148091F803C0BCF1480F07D100F1080CDC
:100360004FF0010808FA0CF8C2F81080401C082869
:10037000CED35460BDE8F0810AB1016100E0416173
:10038000704700BFFEE700000B48806940F0100096
:10039000094988610948406820F4700007494860AD
:1003A0000846406840F4401048600846C06840F481
:1003B0000050C8607047000000100240001001406B
:1003C00000BFFEE770B504460D46B5F57A7F01DB48
:1003D0004FF47A7544B10021084800F099FF29468E
:1003E000064800F093FF08E03CB90021034800F004
:1003F0008DFF2946014800F08BFF70BD00040040CE
:1004000070B504460D46B5F57A7F01DB4FF47A7579
:1004100044B10021084800F077FF2946064800F063
:1004200071FF08E03CB90021034800F06BFF29464A
:10043000014800F069FF70BD0004004070B504463B
:100440000D46B5F57A7F01DB4FF47A7554B1002182
:100450004FF0804000F05AFF29464FF0804000F0F6
:1004600057FF0AE04CB900214FF0804000F050FFE8
:1004700029464FF0804000F049FF70BD70B504463A
:100480000D46B5F57A7F01DB4FF47A7554B1002142
:100490004FF0804000F036FF29464FF0804000F0DA
:1004A00033FF0AE04CB900214FF0804000F02CFFF0
:1004B00029464FF0804000F025FF70BD00B589B09F
:1004C0000121042000F0FCF90121082000F0F8F9D6
:1004D0000121084600F0E4F90121022000F0E0F9D2
:1004E00018208DF823000320ADF820008DF822009D
:1004F00008A93848FFF7B5FE18208DF82300CF2053
:10050000ADF8200003208DF8220008A93248FFF73B
:10051000A8FE324800F0BAFD4FF0804000F0B6FD72
:1005200005A800F04BFF0020ADF81A00ADF816004A
:1005300040F2CF20ADF8140040F2E730ADF81800DB
:1005400000208DF81C0005A9244800F0E5FE05A94F
:100550004FF0804000F0E0FE01A800F0C9FE6020EE
:10056000ADF804000020ADF80C000120ADF8060045
:100570004FF47A70ADF80A0001A9184800F08CFD1C
:1005800001A9164800F0D4FD01A9144800F022FE8C
:1005900001A9124800F06EFE01A94FF0804000F062
:1005A0007BFD01A94FF0804000F0C2FD01A94FF092
:1005B000804000F00FFE01A94FF0804000F05AFE8D
:1005C0000121064800F056FD0121880700F052FD88
:1005D00009B000BD000C01400008014000040040CB
:1005E00000B587B00121082000F06AF901218803D5
:1005F00000F056F910208DF81B000002ADF818002D
:1006000003208DF81A0006A92348FFF72AFE1820B8
:100610008DF81B004FF42040ADF8180003208DF832
:100620001A0006A91C48FFF71CFE48208DF81B0085
:100630004FF48040ADF8180003208DF81A0006A989
:100640001548FFF70EFE4FF48270ADF8060000204B
:10065000ADF80400ADF808008020ADF81200382095
:10066000ADF810000220ADF80A000020ADF80C0033
:100670004FF40070ADF80E000720ADF8140001A98A
:10068000064800F0C1FB0121044800F0A3FB012053
:1006900000F032F807B000BD000C01400038004007
:1006A00010B5002000F028F810BD10B5012000F0B2
:1006B00023F810BD10B5044600BF02210D4800F01C
:1006C00095FB0128F9D1102001F002F921460948D3
:1006D00000F098FB00BF0121064800F087FB0128CD
:1006E000F9D1102001F0F4F8024800F088FBC0B204
:1006F00010BD00000038004010B5044622464FF4FB
:1007000080510248FFF738FE10BD0000000C014088
:100710007047000002490143024A1160704700001F
:100720000000FA050CED00E0002004E00021034A7F
:100730001154411CC8B20928F8DB7047B0010020F1
:1007400010B5FFF7ADFF0120FFF7B4FF4320FFF71F
:10075000B1FF0020FFF7AEFF0120FFF7ABFF002045
:10076000FFF7A8FF0020FFF7A5FF0020FFF7A2FF7B
:100770000020FFF79FFF0020FFF79CFFFFF795FF8A
:1007800010BD10B5FFF78CFF0120FFF793FF43204A
:10079000FFF790FF0020FFF78DFF0020FFF78AFF93
:1007A0005A20FFF787FF5A20FFF784FF5A20FFF7F0
:1007B00081FF5A20FFF77EFF5A20FFF77BFFFFF7EC
:1007C00074FF10BD10B5FFF70BFF00F031F800F01B
:1007D0002FF800F02DF800F02BF800F029F8FFF7C3
:1007E000AFFF00F03AF800F038F8FFF7CAFF10BD8D
:1007F00010B50024FFF754FF00BF0FE0022C06DA0B
:100800000949085DFFF756FF0849085504E0002034
:10081000FFF750FF05490855601CC4B2092CEDDBF9
:10082000FFF743FF10BD000035000020B00100209D
:1008300010B5FFF735FF0120FFF73CFF4220FFF71F
:1008400039FF0020FFF736FF0020FFF733FF0020BD
:10085000FFF730FFFFF729FF10BD10B5FFF720FFAE
:100860000120FFF727FF4420FFF724FF0020FFF7B8
:1008700021FF0120FFF71EFF0320FFF71BFF0020D1
:10088000FFF718FF0020FFF715FF0020FFF712FF0A
:100890000020FFF70FFFFFF708FF10BD70470000B3
:1008A00029B1064AD2690243044BDA6104E0034AE3
:1008B000D2698243014BDA617047000000100240A8
:1008C00029B1064A92690243044B9A6104E0034A43
:1008D00092698243014B9A61704700000010024008
:1008E00030B500210022002400232D4D6D6805F055
:1008F0000C0121B1042905D0082923D105E0294D97
:10090000056022E0274D05601FE0254D6D6805F468
:100910007012234D6D6805F48034022505EB924278
:100920001CB9214D554305600BE01D4D6D6805F464
:1009300000351DB11C4D5543056002E0194D55436E
:10094000056002E0174D056000BF00BF144D6D68E3
:1009500005F0F0010909154D6B5C0568DD40456047
:100960000F4D6D6805F4E061090A104D6B5C456838
:10097000DD4085600A4D6D6805F46051C90A0B4D74
:100980006B5C4568DD40C560054D6D6805F4404110
:10099000890B074D6B5CC568B5FBF3F5056130BD90
:1009A0000010024000127A0000093D0014000020EF
:1009B0002400002010B504460B480088001B0A499B
:1009C0000880088800F0B8F9084B7A2208A10DA029
:1009D00000F03AFE0448018813A000F035FE18A08C
:1009E00000F032FE10BD0000C4000020C41D00084D
:1009F00048617264776172655C536572766F2E63CD
:100A0000000000003C3C46696C653A257320204C90
:100A1000696E653A2564202046756E6374696F6E51
:100A20003A25733E3E200000726F626F7461726DF2
:100A30005F6C6566742E70776D3A25640000000067
:100A40000D0A000010B504460B480088001B0A4937
:100A50000880088800F0A4F9084B962208A10DA090
:100A600000F0F2FD0448018813A000F0EDFD17A08E
:100A700000F0EAFD10BD0000CC000020101E0008B0
:100A800048617264776172655C536572766F2E633C
:100A9000000000003C3C46696C653A257320204C00
:100AA000696E653A2564202046756E6374696F6EC1
:100AB0003A25733E3E200000726F626F7461726D62
:100AC0005F75702E70776D3A256400000D0A000086
:100AD00010B504460B48008820440A49088008885D
:100AE00000F02AF9084B732208A10DA000F0ACFD1C
:100AF0000448018813A000F0A7FD18A000F0A4FD91
:100B000010BD0000C4000020B11D000848617264DF
:100B1000776172655C536572766F2E63000000002A
:100B20003C3C46696C653A257320204C696E653AF9
:100B30002564202046756E6374696F6E3A25733E96
:100B40003E200000726F626F7461726D5F6C65664B
:100B5000742E70776D3A2564000000000D0A0000C5
:100B600010B504460B48008820440A4908800888CC
:100B700000F016F9084B8F2208A10DA000F064FDCB
:100B80000448018813A000F05FFD17A000F05CFD91
:100B900010BD0000CC000020FD1D000848617264FB
:100BA000776172655C536572766F2E63000000009A
:100BB0003C3C46696C653A257320204C696E653A69
:100BC0002564202046756E6374696F6E3A25733E06
:100BD0003E200000726F626F7461726D5F75702EDF
:100BE00070776D3A256400000D0A000010B50446C8
:100BF0000B480088001B0A490880088800F0B6F8F6
:100C0000084B882208A10DA000F01EFD04480188B1
:100C100013A000F019FD18A000F016FD10BD000093
:100C2000D4000020EA1D0008486172647761726593
:100C30005C536572766F2E63000000003C3C466991
:100C40006C653A257320204C696E653A2564202036
:100C500046756E6374696F6E3A25733E3E200000E0
:100C6000726F626F7461726D5F72696768742E7003
:100C7000776D3A25640000000D0A000010B50446A7
:100C80000B48008820440A490880088800F06EF864
:100C9000084B812208A10DA000F0D6FC0448018871
:100CA00013A000F0D1FC18A000F0CEFC10BD000095
:100CB000D4000020D61D0008486172647761726517
:100CC0005C536572766F2E63000000003C3C466901
:100CD0006C653A257320204C696E653A25642020A6
:100CE00046756E6374696F6E3A25733E3E20000050
:100CF000726F626F7461726D5F72696768742E7073
:100D0000776D3A25640000000D0A000008B5012146
:100D10000820FFF7D5FD18208DF803004FF4E07090
:100D2000ADF8000003208DF8020069460148FFF786
:100D300098FA08BD000C014010B5044609484088E7
:100D4000A04202DD0748448805E00648C088A0426A
:100D500001DA0448C488034804800188024800F08E
:100D6000D3FA10BDC40000200008004010B50446AE
:100D700009484088A04202DD0748448805E006484B
:100D8000C088A04201DA0448C4880348048001886E
:100D9000024800F0B7FA10BDD4000020000800405F
:100DA00010B5044609484088A04202DD074844883F
:100DB00005E00648C088A04201DA0448C488034818
:100DC00004800188024800F0A1FA10BDCC00002088
:100DD0000008004021B1028842F04002028004E095
:100DE00002884FF6BF731A40028070470246002007
:100DF00013890B400BB1012000E000207047014631
:100E0000888970478181704710B50022028802F4FA
:100E100041520B884C8823438C882343CC8823433E
:100E20000C8923434C8923438C892343CC89234356
:100E30001A430280838B4FF2FF74234083830B8A13
:100E4000038210BD7047000010B5FFF75FFF00F090
:100E500013F806498888FFF76FFF05498888FFF770
:100E600085FF04498888FFF79BFF10BDC400002060
:100E7000D4000020CC00002000B587B00121042060
:100E8000FFF70EFD1D4800F001F904A800F096FAE6
:100E90000020ADF81600ADF8120040F2CF20ADF8FA
:100EA000100040F2CF70ADF8140000208DF818004B
:100EB00004A9124800F030FA684600F019FA6020E0
:100EC000ADF800000020ADF808000120ADF80200E8
:100ED0000020ADF806006946084800F07BF9694635
:100EE000064800F025F96946044800F0D5F80121CC
:100EF000024800F0BFF807B000BD00000008004045
:100F000010B500F001F810BD0CB500200190009064
:100F10003348006840F480303149086000BF3048F1
:100F2000006800F4003000900198401C0190009887
:100F300018B90198B0F5A06FF1D12948006800F404
:100F4000003010B10120009001E0002000900098D6
:100F5000012843D12348006840F01000214908606F
:100F60000846006820F0030008600846006840F06A
:100F7000020008601A4840681949486008464068FD
:100F800048600846406840F4806048600846406811
:100F900020F47C1048600846406840F4E81048603F
:100FA0000846006840F08070086000BF0C48006888
:100FB00000F000700028F9D00948406820F00300D4
:100FC000074948600846406840F00200486000BF9A
:100FD0000348406800F00C000828F9D10CBD00005F
:100FE0000010024000200240042808D14FF0E02108
:100FF000096941F004014FF0E022116107E04FF070
:10100000E021096921F004014FF0E02211617047ED
:101010007047000010B51348006840F00100114906
:10102000086008464068104908400E494860084674
:1010300000680E4908400B4908600846006820F423
:10104000802008600846406820F4FE0048604FF4A5
:101050001F008860FFF754FF4FF0006004490860EC
:1010600010BD0000001002400000FFF8FFFFF6FE78
:1010700008ED00E021B1028842F00102028004E0A4
:1010800002884FF6FE731A400280704701894FF6BE
:10109000F87211400181704770B5002400220023CE
:1010A000058C4FF6FE7635400584028C8388048BD0
:1010B0004FF68F752C40B51E2C400D882C43751EA5
:1010C0002A400D892A434D882A43144DA8420BD04B
:1010D000134DA84208D0134DA84205D0124DA84286
:1010E00002D0124DA84213D14FF6F7752A404D8910
:1010F0002A434FF6FB752A408D882A434FF6FF6539
:101100002B404FF6FF552B408D892B43CD892B4328
:1011100083800483CD888586028470BD002C0140C5
:1011200000340140004001400044014000480140BB
:1011300070B5002400220023058C4FF6EF76354071
:101140000584028C8388048B48F6FF752C404FF68B
:10115000FF452C400D884FF6FF7606EA05252C4307
:101160004FF6DF752A400D8906EA05152A434D889A
:1011700006EA05152A43154DA84202D0144DA8428F
:101180001DD14FF67F752A404D894FF6FF7606EA4E
:1011900005152A434FF6BF752A408D8806EA0515C6
:1011A0002A434FF6FF352B404FF2FF752B408D89B8
:1011B00006EA85052B43CD8906EA85052B43838006
:1011C0000483CD880587028470BD0000002C014097
:1011D0000034014070B5002400220023058C4FF636
:1011E000FF6635400584028C8388848B4FF68F75AB
:1011F0002C404FF6FC752C400D882C434FF6FF55C4
:101200002A400D894FF6FF7606EA05252A434D88C8
:1012100006EA05252A43154DA84202D0144DA842DE
:101220001DD14FF2FF752A404D894FF6FF7606EA31
:1012300005252A434FF6FF352A408D8806EA052505
:101240002A434EF6FF752B404DF6FF752B408D89D6
:1012500006EA05152B43CD8906EA05152B43838045
:101260008483CD888587028470BD0000002C0140F6
:101270000034014070B5002200230024058C4EF696
:10128000FF7635400584038C8488828B48F6FF7591
:101290002A404FF6FF452A400D884FF6FF7606EAB2
:1012A00005252A434DF6FF752B400D8906EA0535C5
:1012B0002B434D8806EA05352B430B4DA84202D03F
:1012C0000A4DA84208D14BF6FF752C408D894FF688
:1012D000FF7606EA85152C4384808283CD88A0F8AA
:1012E0004050038470BD0000002C014000340140D8
:1012F0000021018041808180C18001814181818103
:10130000C181704781867047018770478187704728
:10131000A0F8401070470000002202881D4B984240
:101320000ED01D4B98420BD0B0F1804F08D01B4B14
:10133000984205D01A4B984202D01A4B984204D1D9
:101340004FF68F731A404B881A43174B984207D0B9
:10135000164B984204D04FF6FF431A40CB881A43ED
:1013600002808B8883850B8803850A4B98420BD0BB
:10137000094B984208D00E4B984205D00D4B98422D
:1013800002D00D4B984201D10B7A03860123838250
:1013900070470000002C0140003401400004004070
:1013A00000080040000C0040001000400014004005
:1013B0000040014000440140004801404FF6FF71E9
:1013C000818000210180C18041800172704700004E
:1013D00010B540F225511D4800F057F810B31B48D6
:1013E00000F0EAF8C4B21A48008800F40040C8B916
:1013F0001748008800F4804060B10A2C03D0002018
:101400001349088020E01248008840F40040104949
:10141000088019E00D2C06D10D48008840F480406A
:101420000B49088010E00A480088C0F30D00094904
:101430000C5407480088401C05490880084600886D
:10144000C72801DD0020088010BD000000380140E1
:101450002C000020E800002021B1828942F40052D3
:10146000828104E082894DF6FF731A4082817047C1
:1014700002460020B1F5007F00D100BF13880B4069
:101480000BB1012000E00020704770B50246002437
:1014900000230025002040F66A16B14200D100BFAB
:1014A000C1F3421501F01F03012606FA03F3012DD3
:1014B00002D19689334006E0022D02D1168A3340CC
:1014C00001E0968A33400C12012606FA04F41688CD
:1014D000344013B10CB1012000E0002070BD0000C9
:1014E0002DE9F04786B005460E460024A24600BF0F
:1014F000A1460027B08900B100BF2F462C8A4CF6C8
:10150000FF700440F08804432C82AC894EF6F3103F
:101510000440B08831890843718908430443AC8191
:10152000AC8A4FF6FF400440B0890443AC8201A866
:10153000FFF7D6F91F48874202D1DDF810A001E07D
:10154000DDF80CA0A88900F4004040B10AEBCA0005
:1015500000EB0A1031684900B0FBF1F807E00AEB34
:10156000CA0000EB0A1031688900B0FBF1F8642072
:10157000B8FBF0F004012009642101FB1089A8895F
:1015800000F4004040B1322000EBC900B0FBF1F0A4
:1015900000F00700044308E0322000EB091064214A
:1015A000B0FBF1F000F00F0004432C8106B0BDE861
:1015B000F08700000038014001468888C0F3080029
:1015C0007047C1F3080282807047000010B586B0F2
:1015D0000446012144F20400FFF772F94FF4007051
:1015E000ADF8140003208DF8160018208DF81700B0
:1015F00005A91248FEF735FE4FF48060ADF81400DF
:1016000004208DF8170005A90C48FEF72AFE019466
:101610000020ADF80800ADF80A00ADF80C00ADF8F8
:1016200010000820ADF80E0001A90548FFF758FF8B
:1016300001210348FFF710FF06B010BD000801406C
:101640000038014000BFFEE70FB4054B10B503A9F9
:10165000044A029800F018F810BC5DF814FB000072
:101660001D190008E400002002E008C8121F08C18C
:10167000002AFAD170477047002001E001C1121F13
:10168000002AFBD1704700002DE9FF4F8BB09A462E
:101690000F460546002606E025280BD052460D9938
:1016A00090476D1C761C28780028F5D10FB0304685
:1016B000BDE8F08F0024A0460122604900E0044309
:1016C00015F8013F203B02FA03F00842F7D12878D1
:1016D0002E2817D115F8010F44F004042A280ED043
:1016E0006FF02F022878A0F1300109290AD808EB01
:1016F000880102EB410100EB01086D1CF2E757F88D
:10170000048B6D1C287869283ED006DC0028CDD0DB
:1017100063280BD0642804D136E0732810D07528D4
:101720004BD052460D999047761C85E017F8040B74
:101730008DF8000000208DF80100E946012003E04B
:1017400057F8049B4FF0FF3061074FF0000401D4BD
:101750000AE0641C44450DDA8442FADB19F80410EF
:101760000029F6D106E0641C8442FCDB19F8041061
:101770000029F8D1264404E019F8010B52460D99CE
:101780009047641EF8D257E001CF4FF00A0B0028B3
:1017900002DA40422D2102E0210504D52B218DF8EB
:1017A0002410012103E0E10705D02021F7E70DF126
:1017B000200908910CE00021F9E701CF4FF00A0B56
:1017C000F9E75946FEF7B0FC01F1300209F8012DA6
:1017D0000028F6D1ADEB090000F1200B600701D421
:1017E0004FF00108D84502DDA8EB0B0000E0002017
:1017F0008046002406E009A85246005D0D999047F6
:10180000641C761C08988442F5DB04E030205246C4
:101810000D999047761CB8F10001A8F10108F5DC9C
:1018200005E019F8010B52460D999047761CBBF163
:101830000001ABF1010BF4DC6D1C34E70928010059
:1018400010B56FF00400FFF7CFFB0A4800680A49A3
:10185000B0FBF1F0094908700846007800EB400140
:10186000C1EBC0104FF6FF7101EAC00004490880C7
:1018700010BD00000000002000127A0028000020A7
:101880002A0000200146114A12884A434FF0E02303
:101890005A6100229A611A46126942F001021A61E5
:1018A00000BF4FF0E022106900F001021AB100F40D
:1018B0008032002AF5D04FF0E022126922F00102B6
:1018C0004FF0E0231A6100229A6170472A0000203D
:1018D0000146114A12784A434FF0E0235A61002230
:1018E0009A611A46126942F001021A6100BF4FF074
:1018F000E022106900F001021AB100F48032002ADF
:10190000F5D04FF0E022126922F001024FF0E023FF
:101910001A6100229A6170472800002070B50446C1
:101920000D46E1B20548FFF74CFE00BF8021034899
:10193000FFF79EFD0028F9D0204670BD0038014019
:101940004FF4A060FEF7E6FEFFF77AFF4FF4E130B8
:10195000FFF73CFEFEF718FD8F4B19228FA192A0D6
:10196000FFF772FE99A0FFF76FFE9DA0FFF76CFED8
:10197000FEF728FFFEF7A2FDFFF766FA864B1D2251
:1019800086A189A0FFF760FE96A0FFF75DFE94A0F8
:10199000FFF75AFEFEE000F0ADF99749087000F03D
:1019A00075F996490870072000F05CF994490870B1
:1019B000082000F057F993490870052000F052F90B
:1019C00091490870062000F04DF9904908708A4846
:1019D00000788F490978884202D08EA0FFF734FE44
:1019E0008548007801287DD10020904908600720B3
:1019F00000F038F982490870082000F033F9814975
:101A000008700846007820B94FF47A70FEF7C9FBD9
:101A10002AE07C480078FF2804D14FF47A70FEF762
:101A2000ADFB21E07648007820B94FF47A70FEF7DC
:101A3000CBFB19E072480078FF2804D14FF47A708C
:101A4000FEF7D5FB10E00B2000F012F920B14FF4A7
:101A50007A70FEF7DFFB07E0092000F009F918B102
:101A60004FF47A70FEF7E9FB052000F0FBF86649B9
:101A7000087008460078FF280FD1474BAC2247A1D9
:101A800049A0FFF7E1FD6AA0FFF7DEFD54A0FFF7D4
:101A9000DBFD0320FFF71CF811E05B48007870B90C
:101AA0003D4BAF223DA140A0FFF7CEFD62A0FFF766
:101AB000CBFD4BA0FFF7C8FD0320FEF77BFF062000
:101AC00000F0D0F8514908700846007888B9324BC8
:101AD000B52232A134A0FFF7B7FD59A0FFF7B4FD3E
:101AE0003FA000E040E0FFF7AFFD0320FFF7C6F89E
:101AF00012E046480078FF280ED1274BB82227A1D4
:101B000029A0FFF7A1FD50A0FFF79EFD34A0FFF72D
:101B10009BFD0320FFF76AF80C2000F0A9F878B1CC
:101B20001D4BBE221DA120A0FFF78EFD48A0FFF790
:101B30008BFD2BA0FFF788FD0320FFF711F822E0B3
:101B40000A2000F095F8F0B1134BC12213A116A0A2
:101B5000FFF77AFD40A0FFF777FD21A0FFF774FDA6
:101B60000320FEF76FFF0EE00020304908604FF4BD
:101B70007A70FFF787FE01203949C1F8B4014FF4AC
:101B80007A70FFF77FFE1C480078214908700A2010
:101B9000FFF778FEFFE60000211E0008557365720E
:101BA0005C6D61696E2E63003C3C46696C653A254C
:101BB0007320204C696E653A2564202046756E635B
:101BC00074696F6E3A25733E3E2000003131313129
:101BD00031313131313131313131313100000000B9
:101BE0000D0A000032323232323232323232323286
:101BF0003232323200000000E1000020E00000201C
:101C0000DC000020DD000020DE000020DF000020DE
:101C1000E2000020BCECB2E9C4A3CABDCAC7B7F158
:101C2000B7A2C9FAB1E4BBAF00000000B401224280
:101C3000CCA7C6F000000000B7C5CFC2000000006E
:101C4000C9ECD5B900000000CAD5CBF500000000F2
:101C5000BCD0D7A600000000CBC9D7A6000000006A
:101C60000000224201460148405C7047B00100205C
:101C70000146012901DA00207047481E024A02EBA2
:101C8000C0000079F8E700004000002070B5002592
:101C9000FEF74AFDFEF7ACFD1348C07812490979FA
:101CA00040EA012011490860042419E0104810F8A6
:101CB0003400401E012101FA00F00C490968084077
:101CC00038B901200A4901EBC4014860601CC5B263
:101CD00004E00020064901EBC4014860601CC4B266
:101CE000102CE3DB284670BDB0010020300000203E
:101CF0004000002010B516484078732803D1012019
:101D00001449087021E012484078412803D102208C
:101D10001049087019E000200E4908700E4800684C
:101D2000401C0D4908600846006864280DDD00204D
:101D300008600A4BC0220AA10DA0FFF785FC15A080
:101D4000FFF782FC16A0FFF77FFC0248007810BD69
:101D5000B001002034000020C0000020A41D0008B5
:101D600048617264776172655C7073322E63000043
:101D70003C3C46696C653A257320204C696E653A97
:101D80002564202046756E6374696F6E3A25733E34
:101D90003E200000CAD6B1FAD0C5BAC5B6AACAA7B5
:101DA0000D0A00007073325F6D6F64655F67657464
:101DB00000526F626F7441726D5F52616973654862
:101DC000616E6400526F626F7441726D5F44726F36
:101DD0007048616E6400526F626F7441726D5F5340
:101DE000747265636848616E6400526F626F74411B
:101DF000726D5F5368696E6B48616E6400526F620A
:101E00006F7441726D5F5368616B6548616E640009
:101E1000526F626F7441726D5F4C657448616E649D
:101E2000006D61696E000000481E0008000000207F
:101E3000E800000068160008301F0008E8000020D5
:101E4000E00400007816000800A24A040000000028
:101E5000000000000102030406070809000000005A
:101E6000010203040102030406070809020406082C
:101E7000000000000000000000000000000142001F
:101E80000000000000000000010000000000000051
:101E9000020000000000000003000000000000003D
:101EA0000400000000000000050000000000000029
:101EB0000600000000000000070000000000000015
:101EC0000800000000000000090000000000000001
:101ED0000A000000000000000B00000000000000ED
:101EE0000C000000000000000D00000000000000D9
:101EF0000E000000000000000F00000000000000C5
:101F0000100000000000000000000000C800960063
:101F1000C800E600960078009600E600B4008C0049
:101F2000B400E60000000000000000000000000017
:04000005080000ED02
:00000001FF
