:020000040800F2
:10000000C805002005010008510700088303000807
:10001000C103000879010008E11600080000000093
:10002000000000000000000000000000850E000835
:100030006102000800000000DD08000851100008FF
:100040001F0100081F0100081F0100081F01000810
:100050001F0100081F0100081F0100081F01000800
:100060001F0100081F0100081F0100081F010008F0
:100070001F0100081F0100081F0100081F010008E0
:100080001F0100081F0100081F0100081F010008D0
:100090001F0100081F0100081F0100081F010008C0
:1000A0001F0100081F0100081F0100081F010008B0
:1000B0001F0100081F0100081F0100081F010008A0
:1000C0001F0100081F0100081F0100081F01000890
:1000D0001F0100086D1400081F0100081F0100081F
:1000E0001F0100081F0100081F010008DFF810D0E1
:1000F00000F030F800480047DD190008AFF3008039
:10010000C80500200648804706480047FEE7FEE78E
:10011000FEE7FEE7FEE7FEE7FEE7FEE7FEE7FEE7B7
:1001200055100008ED00000830B50B4601460020D0
:100130002022012409E021FA02F59D4205D303FAA9
:1001400002F5491B04FA02F52844151EA2F101022A
:10015000F1DC30BD064C074D06E0E06840F00103DD
:1001600094E8070098471034AC42F6D3FFF7C2FF7B
:10017000701E0008901E000800BFFEE710B5044680
:100180002146002000F01EF92146002000F038F939
:100190002146002000F052F92146002000F06EF9BF
:1001A00010BD10B504462146012000F00BF9214690
:1001B000012000F025F92146012000F03FF92146F9
:1001C000012000F05BF910BD10B504462146012066
:1001D00000F0F8F82146002000F012F92146012035
:1001E00000F02CF92146002000F048F910BD10B5B0
:1001F00004462146002000F0E5F82146012000F0E9
:10020000FFF82146002000F019F92146012000F0F6
:1002100035F910BD10B504462146002000F0D2F893
:100220002146002000F0ECF82146012000F006F9FC
:100230002146012000F022F910BD10B504462146E8
:10024000012000F0BFF82146012000F0D9F8214636
:10025000002000F0F3F82146002000F00FF910BD57
:1002600070472DE9F04102460025002600200023BA
:100270000024002791F803C00CF00F0591F803C08B
:100280000CF0100CBCF1000F03D091F802C04CEA46
:10029000050591F800C0BCF1000F31D014680020B2
:1002A0002BE04FF0010C0CFA00F3B1F800C00CEA9F
:1002B00003069E4220D183004FF00F0C0CFA03F787
:1002C000BC4305FA03FC4CEA040491F803C0BCF1FA
:1002D000280F06D14FF0010C0CFA00FCC2F814C034
:1002E0000AE091F803C0BCF1480F05D14FF0010CB2
:1002F0000CFA00FCC2F810C0401C0828D1D31460CE
:10030000B1F800C0BCF1FF0F34DD546800202EE0CE
:1003100000F1080C4FF0010808FA0CF3B1F800C026
:100320000CEA03069E4221D183004FF00F0C0CFA19
:1003300003F7BC4305FA03FC4CEA040491F803C03C
:10034000BCF1280F05D100F1080C08FA0CF8C2F82E
:10035000148091F803C0BCF1480F07D100F1080CDC
:100360004FF0010808FA0CF8C2F81080401C082869
:10037000CED35460BDE8F0810AB1016100E0416173
:10038000704700BFFEE700000B48806940F0100096
:10039000094988610948406820F4700007494860AD
:1003A0000846406840F4401048600846C06840F481
:1003B0000050C8607047000000100240001001406B
:1003C00000BFFEE770B504460D46B5F57A7F01DB48
:1003D0004FF47A7544B10021084800F0E8FF29463F
:1003E000064800F0E2FF08E03CB90021034800F0B5
:1003F000DCFF2946014800F0DAFF70BD0004004030
:1004000070B504460D46B5F57A7F01DB4FF47A7579
:1004100044B10021084800F0C6FF2946064800F014
:10042000C0FF08E03CB90021034800F0BAFF2946AC
:10043000014800F0B8FF70BD0004004070B50446EC
:100440000D46B5F57A7F01DB4FF47A7554B1002182
:100450004FF0804000F0A9FF29464FF0804000F0A7
:10046000A6FF0AE04CB900214FF0804000F09FFF4A
:1004700029464FF0804000F098FF70BD70B50446EB
:100480000D46B5F57A7F01DB4FF47A7554B1002142
:100490004FF0804000F085FF29464FF0804000F08B
:1004A00082FF0AE04CB900214FF0804000F07BFF52
:1004B00029464FF0804000F074FF70BD00B589B050
:1004C0000121042000F01CFA0121082000F018FA94
:1004D0000121084600F004FA0121022000F000FA90
:1004E00018208DF823000320ADF820008DF822009D
:1004F00008A94848FFF7B5FE18208DF82300CF2043
:10050000ADF8200003208DF8220008A94248FFF72B
:10051000A8FE424800F0DAFD4FF0804000F0D6FD22
:1005200005A800F099FF0020ADF81A00ADF81600FC
:1005300040F2CF20ADF8140040F2E730ADF81800DB
:1005400000208DF81C0005A9344800F033FF05A9F0
:100550004FF0804000F02EFF01A800F018FF60204F
:10056000ADF804000020ADF80C000120ADF8060045
:100570004FF47A70ADF80A0001A9284800F0ACFDEC
:1005800001A9264800F0FEFD01A9244800F05AFE0A
:1005900001A9224800F0B0FE01A94FF0804000F010
:1005A0009BFD01A94FF0804000F0ECFD01A94FF048
:1005B000804000F047FE01A94FF0804000F09CFE13
:1005C0000821164800F0D4FD0821144800F02CFE44
:1005D0000821124800F086FE0821104800F0CAFEEB
:1005E0000821C80600F0C4FD0821C80600F01CFE62
:1005F0000821C80600F076FE0821C80600F0BAFE01
:100600000121064800F056FD0121880700F052FD47
:1006100009B000BD000C014000080140000400408A
:1006200000B587B00121082000F06AF90121880394
:1006300000F056F910208DF81B000002ADF81800EC
:1006400003208DF81A0006A92348FFF70AFE182098
:100650008DF81B004FF42040ADF8180003208DF8F2
:100660001A0006A91C48FFF7FCFD48208DF81B0066
:100670004FF48040ADF8180003208DF81A0006A949
:100680001548FFF7EEFD4FF48270ADF8060000202C
:10069000ADF80400ADF808008020ADF81200382055
:1006A000ADF810000220ADF80A000020ADF80C00F3
:1006B0004FF40070ADF80E000720ADF8140001A94A
:1006C000064800F0C1FB0121044800F0A3FB012013
:1006D00000F032F807B000BD000C014000380040C7
:1006E00010B5002000F028F810BD10B5012000F072
:1006F00023F810BD10B5044600BF02210D4800F0DC
:1007000095FB0128F9D1102001F030F92146094864
:1007100000F098FB00BF0121064800F087FB01288C
:10072000F9D1102001F022F9024800F088FBC0B294
:1007300010BD00000038004010B5044622464FF4BA
:1007400080510248FFF718FE10BD0000000C014068
:100750007047000002490143024A116070470000DF
:100760000000FA050CED00E0002004E00021034A3F
:100770001154411CC8B20928F8DB7047B0010020B1
:1007800010B5FFF7ADFF0120FFF7B4FF4320FFF7DF
:10079000B1FF0020FFF7AEFF0120FFF7ABFF002005
:1007A000FFF7A8FF0020FFF7A5FF0020FFF7A2FF3B
:1007B0000020FFF79FFF0020FFF79CFFFFF795FF4A
:1007C00010BD10B5FFF78CFF0120FFF793FF43200A
:1007D000FFF790FF0020FFF78DFF0020FFF78AFF53
:1007E0005A20FFF787FF5A20FFF784FF5A20FFF7B0
:1007F00081FF5A20FFF77EFF5A20FFF77BFFFFF7AC
:1008000074FF10BD10B5FFF70BFF00F031F800F0DA
:100810002FF800F02DF800F02BF800F029F8FFF782
:10082000AFFF00F03AF800F038F8FFF7CAFF10BD4C
:1008300010B50024FFF754FF00BF0FE0022C06DACA
:100840000949085DFFF756FF0849085504E00020F4
:10085000FFF750FF05490855601CC4B2092CEDDBB9
:10086000FFF743FF10BD000035000020B00100205D
:1008700010B5FFF735FF0120FFF73CFF4220FFF7DF
:1008800039FF0020FFF736FF0020FFF733FF00207D
:10089000FFF730FFFFF729FF10BD10B5FFF720FF6E
:1008A0000120FFF727FF4420FFF724FF0020FFF778
:1008B00021FF0120FFF71EFF0320FFF71BFF002091
:1008C000FFF718FF0020FFF715FF0020FFF712FFCA
:1008D0000020FFF70FFFFFF708FF10BD7047000073
:1008E00029B1064AD2690243044BDA6104E0034AA3
:1008F000D2698243014BDA61704700000010024068
:1009000029B1064A92690243044B9A6104E0034A02
:1009100092698243014B9A617047000000100240C7
:1009200030B500210022002400232D4D6D6805F014
:100930000C0121B1042905D0082923D105E0294D56
:10094000056022E0274D05601FE0254D6D6805F428
:100950007012234D6D6805F48034022505EB924238
:100960001CB9214D554305600BE01D4D6D6805F424
:1009700000351DB11C4D5543056002E0194D55432E
:10098000056002E0174D056000BF00BF144D6D68A3
:1009900005F0F0010909154D6B5C0568DD40456007
:1009A0000F4D6D6805F4E061090A104D6B5C4568F8
:1009B000DD4085600A4D6D6805F46051C90A0B4D34
:1009C0006B5C4568DD40C560054D6D6805F44041D0
:1009D000890B074D6B5CC568B5FBF3F5056130BD50
:1009E0000010024000127A0000093D0014000020AF
:1009F0002400002010B504460B480088001B0A495B
:100A00000880088800F0B8F9084B7A2208A10DA0E8
:100A100000F068FE0448018813A000F063FE18A0EF
:100A200000F060FE10BD0000C40000200C1E000895
:100A300048617264776172655C536572766F2E638C
:100A4000000000003C3C46696C653A257320204C50
:100A5000696E653A2564202046756E6374696F6E11
:100A60003A25733E3E200000726F626F7461726DB2
:100A70005F6C6566742E70776D3A25640000000027
:100A80000D0A000010B504460B480088001B0A49F7
:100A90000880088800F0A4F9084B962208A10DA050
:100AA00000F020FE0448018813A000F01BFE17A0F0
:100AB00000F018FE10BD0000CC000020581E0008F9
:100AC00048617264776172655C536572766F2E63FC
:100AD000000000003C3C46696C653A257320204CC0
:100AE000696E653A2564202046756E6374696F6E81
:100AF0003A25733E3E200000726F626F7461726D22
:100B00005F75702E70776D3A256400000D0A000045
:100B100010B504460B48008820440A49088008881C
:100B200000F02AF9084B732208A10DA000F0DAFDAD
:100B30000448018813A000F0D5FD18A000F0D2FDF4
:100B400010BD0000C4000020F91D00084861726457
:100B5000776172655C536572766F2E6300000000EA
:100B60003C3C46696C653A257320204C696E653AB9
:100B70002564202046756E6374696F6E3A25733E56
:100B80003E200000726F626F7461726D5F6C65660B
:100B9000742E70776D3A2564000000000D0A000085
:100BA00010B504460B48008820440A49088008888C
:100BB00000F016F9084B8F2208A10DA000F092FD5D
:100BC0000448018813A000F08DFD17A000F08AFDF5
:100BD00010BD0000CC000020451E00084861726472
:100BE000776172655C536572766F2E63000000005A
:100BF0003C3C46696C653A257320204C696E653A29
:100C00002564202046756E6374696F6E3A25733EC5
:100C10003E200000726F626F7461726D5F75702E9E
:100C200070776D3A256400000D0A000010B5044687
:100C30000B480088001B0A490880088800F0B6F8B5
:100C4000084B882208A10DA000F04CFD0448018843
:100C500013A000F047FD18A000F044FD10BD0000F7
:100C6000D4000020321E000848617264776172650A
:100C70005C536572766F2E63000000003C3C466951
:100C80006C653A257320204C696E653A25642020F6
:100C900046756E6374696F6E3A25733E3E200000A0
:100CA000726F626F7461726D5F72696768742E70C3
:100CB000776D3A25640000000D0A000010B5044667
:100CC0000B48008820440A490880088800F06EF824
:100CD000084B812208A10DA000F004FD0448018802
:100CE00013A000F0FFFC18A000F0FCFC10BD0000F9
:100CF000D40000201E1E000848617264776172658E
:100D00005C536572766F2E63000000003C3C4669C0
:100D10006C653A257320204C696E653A2564202065
:100D200046756E6374696F6E3A25733E3E2000000F
:100D3000726F626F7461726D5F72696768742E7032
:100D4000776D3A25640000000D0A000008B5012106
:100D50000820FFF7D5FD18208DF803004FF4E07050
:100D6000ADF8000003208DF8020069460148FFF746
:100D700078FA08BD000C014010B5044609484088C7
:100D8000A04202DD0748448805E00648C088A0422A
:100D900001DA0448C488034804800188024800F04E
:100DA00002FB10BDC40000200008004010B504463E
:100DB00009484088A04202DD0748448805E006480B
:100DC000C088A04201DA0448C4880348048001882E
:100DD000024800F0E6FA10BDD400002000080040F0
:100DE00010B5044609484088A04202DD07484488FF
:100DF00005E00648C088A04201DA0448C4880348D8
:100E000004800188024800F0D0FA10BDCC00002018
:100E10000008004021B1028842F04002028004E054
:100E200002884FF6BF731A400280704702460020C6
:100E300013890B400BB1012000E0002070470146F0
:100E4000888970478181704710B50022028802F4BA
:100E500041520B884C8823438C882343CC882343FE
:100E60000C8923434C8923438C892343CC89234316
:100E70001A430280838B4FF2FF74234083830B8AD3
:100E8000038210BD7047000010B5FFF75FFF00F050
:100E900013F806498888FFF76FFF05498888FFF730
:100EA00085FF04498888FFF79BFF10BDC400002020
:100EB000D4000020CC00002000B587B00121042020
:100EC000FFF70EFD1D4800F001F904A800F0C4FA78
:100ED0000020ADF81600ADF8120040F2CF20ADF8BA
:100EE000100040F2CF70ADF8140000208DF818000B
:100EF00004A9124800F05EFA684600F048FA602043
:100F0000ADF800000020ADF808000120ADF80200A7
:100F10000020ADF806006946084800F093F96946DC
:100F2000064800F02FF96946044800F0D5F8012181
:100F3000024800F0BFF807B000BD00000008004004
:100F400010B500F001F810BD0CB500200190009024
:100F50003348006840F480303149086000BF3048B1
:100F6000006800F4003000900198401C0190009847
:100F700018B90198B0F5A06FF1D12948006800F4C4
:100F8000003010B10120009001E000200090009896
:100F9000012843D12348006840F01000214908602F
:100FA0000846006820F0030008600846006840F02A
:100FB000020008601A4840681949486008464068BD
:100FC00048600846406840F48060486008464068D1
:100FD00020F47C1048600846406840F4E8104860FF
:100FE0000846006840F08070086000BF0C48006848
:100FF00000F000700028F9D00948406820F0030094
:10100000074948600846406840F00200486000BF59
:101010000348406800F00C000828F9D10CBD00001E
:101020000010024000200240042808D14FF0E021C7
:10103000096941F004014FF0E022116107E04FF02F
:10104000E021096921F004014FF0E02211617047AD
:101050007047000010B51348006840F001001149C6
:10106000086008464068104908400E494860084634
:1010700000680E4908400B4908600846006820F4E3
:10108000802008600846406820F4FE0048604FF465
:101090001F008860FFF754FF4FF0006004490860AC
:1010A00010BD0000001002400000FFF8FFFFF6FE38
:1010B00008ED00E021B1028842F00102028004E064
:1010C00002884FF6FE731A400280704701894FF67E
:1010D000F87211400181704770B50024002200238E
:1010E000058C4FF6FE7635400584028C8388048B90
:1010F0004FF68F752C40B51E2C400D882C43751E65
:101100002A400D892A434D882A43144DA8420BD00A
:10111000134DA84208D0134DA84205D0124DA84245
:1011200002D0124DA84213D14FF6F7752A404D89CF
:101130002A434FF6FB752A408D882A434FF6FF65F8
:101140002B404FF6FF552B408D892B43CD892B43E8
:1011500083800483CD888586028470BD002C014085
:10116000003401400040014000440140004801407B
:101170000A460021018B4FF6F77319401143018392
:101180007047000070B5002400220023058C4FF644
:10119000EF7635400584028C8388048B48F6FF7512
:1011A0002C404FF6FF452C400D884FF6FF7606EA9F
:1011B00005252C434FF6DF752A400D8906EA0515F3
:1011C0002A434D8806EA05152A43154DA84202D048
:1011D000144DA8421DD14FF67F752A404D894FF618
:1011E000FF7606EA05152A434FF6BF752A408D881B
:1011F00006EA05152A434FF6FF352B404FF2FF75DF
:101200002B408D8906EA85052B43CD8906EA8505A5
:101210002B4383800483CD880587028470BD000042
:10122000002C0140003401400A460021018B4FF29E
:10123000FF7319404FF6FF7303EA0223194301833A
:101240007047000070B5002400220023058C4FF683
:10125000FF6635400584028C8388848B4FF68F753A
:101260002C404FF6FC752C400D882C434FF6FF5553
:101270002A400D894FF6FF7606EA05252A434D8858
:1012800006EA05252A43154DA84202D0144DA8426E
:101290001DD14FF2FF752A404D894FF6FF7606EAC1
:1012A00005252A434FF6FF352A408D8806EA052595
:1012B0002A434EF6FF752B404DF6FF752B408D8966
:1012C00006EA05152B43CD8906EA05152B438380D5
:1012D0008483CD888587028470BD0000002C014086
:1012E000003401400A460021818B4FF6F773194004
:1012F000114381837047000070B500220023002451
:10130000058C4EF6FF7635400584038C8488828BED
:1013100048F6FF752A404FF6FF452A400D884FF6E4
:10132000FF7606EA05252A434DF6FF752B400D8909
:1013300006EA05352B434D8806EA05352B430B4D50
:10134000A84202D00A4DA84208D14BF6FF752C40A6
:101350008D894FF6FF7606EA85152C4384808283BB
:10136000CD88A0F84050038470BD0000002C0140DF
:10137000003401400A460021818B4FF2FF7319406F
:101380004FF6FF7303EA022319438183704700215C
:10139000018041808180C180018141818181C18141
:1013A0007047818670470187704781877047A0F832
:1013B00040107047002202881D4B98420ED01D4BF2
:1013C00098420BD0B0F1804F08D01B4B984205D00B
:1013D0001A4B984202D01A4B984204D14FF68F73A1
:1013E0001A404B881A43174B984207D0164B984225
:1013F00004D04FF6FF431A40CB881A4302808B88F3
:1014000083850B8803850A4B98420BD0094B984281
:1014100008D00E4B984205D00D4B984202D00D4B90
:10142000984201D10B7A0386012383827047000022
:10143000002C01400034014000040040000800403E
:10144000000C00400010004000140040004001402B
:1014500000440140004801404FF6FF7181800021A7
:101460000180C180418001727047000010B540F2D8
:1014700025511D4800F057F810B31B4800F0EAF85A
:10148000C4B21A48008800F40040C8B91748008860
:1014900000F4804060B10A2C03D00020134908807A
:1014A00020E01248008840F400401049088019E00C
:1014B0000D2C06D10D48008840F480400B4908806F
:1014C00010E00A480088C0F30D0009490C54074891
:1014D0000088401C0549088008460088C72801DDAF
:1014E0000020088010BD0000003801402C000020C2
:1014F000E800002021B1828942F40052828104E098
:1015000082894DF6FF731A4082817047024600209F
:10151000B1F5007F00D100BF13880B400BB1012053
:1015200000E00020704770B502460024002300252B
:10153000002040F66A16B14200D100BFC1F3421547
:1015400001F01F03012606FA03F3012D02D196894B
:10155000334006E0022D02D1168A334001E0968A1C
:1015600033400C12012606FA04F41688344013B1F5
:101570000CB1012000E0002070BD00002DE9F04713
:1015800086B005460E460024A24600BFA1460027AD
:10159000B08900B100BF2F462C8A4CF6FF70044082
:1015A000F08804432C82AC894EF6F3100440B088D6
:1015B00031890843718908430443AC81AC8A4FF6F2
:1015C000FF400440B0890443AC8201A8FFF7A8F9AA
:1015D0001F48874202D1DDF810A001E0DDF80CA021
:1015E000A88900F4004040B10AEBCA0000EB0A10E1
:1015F00031684900B0FBF1F807E00AEBCA0000EBE4
:101600000A1031688900B0FBF1F86420B8FBF0F0F3
:1016100004012009642101FB1089A88900F400401D
:1016200040B1322000EBC900B0FBF1F000F0070040
:10163000044308E0322000EB09106421B0FBF1F014
:1016400000F00F0004432C8106B0BDE8F0870000D5
:101650000038014001468888C0F308007047C1F394
:10166000080282807047000010B586B00446012150
:1016700044F20400FFF744F94FF40070ADF8140091
:1016800003208DF8160018208DF8170005A91248C0
:10169000FEF7E7FD4FF48060ADF8140004208DF8EC
:1016A000170005A90C48FEF7DCFD01940020ADF8F9
:1016B0000800ADF80A00ADF80C00ADF810000820E5
:1016C000ADF80E0001A90548FFF758FF01210348B6
:1016D000FFF710FF06B010BD0008014000380140C0
:1016E00000BFFEE70FB4054B10B503A9044A0298EA
:1016F00000F018F810BC5DF814FB0000B9190008E0
:10170000E400002002E008C8121F08C1002AFAD134
:1017100070477047002001E001C1121F002AFBD171
:10172000704700002DE9FF4F8BB09A460F460546E3
:10173000002606E025280BD052460D9990476D1CD7
:10174000761C28780028F5D10FB03046BDE8F08F20
:101750000024A0460122604900E0044315F8013F3F
:10176000203B02FA03F00842F7D128782E2817D13F
:1017700015F8010F44F004042A280ED06FF02F0250
:101780002878A0F1300109290AD808EB880102EB7A
:10179000410100EB01086D1CF2E757F8048B6D1C4A
:1017A000287869283ED006DC0028CDD063280BD0ED
:1017B000642804D136E0732810D075284BD05246E7
:1017C0000D999047761C85E017F8040B8DF8000002
:1017D00000208DF80100E946012003E057F8049B42
:1017E0004FF0FF3061074FF0000401D40AE0641CA1
:1017F00044450DDA8442FADB19F804100029F6D1C9
:1018000006E0641C8442FCDB19F804100029F8D1BE
:10181000264404E019F8010B52460D999047641EC6
:10182000F8D257E001CF4FF00A0B002802DA40420D
:101830002D2102E0210504D52B218DF82410012152
:1018400003E0E10705D02021F7E70DF12009089119
:101850000CE00021F9E701CF4FF00A0BF9E75946F8
:10186000FEF762FC01F1300209F8012D0028F6D1E3
:10187000ADEB090000F1200B600701D44FF0010827
:10188000D84502DDA8EB0B0000E0002080460024D4
:1018900006E009A85246005D0D999047641C761C2D
:1018A00008988442F5DB04E0302052460D999047B9
:1018B000761CB8F10001A8F10108F5DC05E019F883
:1018C000010B52460D999047761CBBF10001ABF11C
:1018D000010BF4DC6D1C34E70928010010B56FF032
:1018E0000400FFF7A1FB0A4800680A49B0FBF1F0C9
:1018F000094908700846007800EB4001C1EBC010B0
:101900004FF6FF7101EAC0000449088010BD0000D5
:101910000000002000127A00280000202A00002089
:101920000146114A12884A434FF0E0235A610022CF
:101930009A611A46126942F001021A6100BF4FF023
:10194000E022106900F001021AB100F48032002A8E
:10195000F5D04FF0E022126922F001024FF0E023AF
:101960001A6100229A6170472A0000200146114A3C
:1019700012784A434FF0E0235A6100229A611A46D6
:10198000126942F001021A6100BF4FF0E0221069B3
:1019900000F001021AB100F48032002AF5D04FF0B5
:1019A000E022126922F001024FF0E0231A610022C6
:1019B0009A6170472800002070B504460D46E1B2D8
:1019C0000548FFF74CFE00BF80210348FFF79EFD4E
:1019D0000028F9D0204670BD003801404FF4A060C7
:1019E000FEF7B8FEFFF77AFF4FF4E130FFF73CFE59
:1019F000FEF7CAFCFEF706FFFEF760FDFFF744FAAC
:101A0000002081490860FEE000F098F97F490870E5
:101A100000F060F97E490870072000F047F97D4921
:101A20000870082000F042F97B490870052000F09A
:101A30003DF97A490870062000F038F978490870B5
:101A40007248007877490978884202D076A0FFF77B
:101A500049FE6E48007801287DD100206A4908605F
:101A6000072000F023F96B490870082000F01EF9E8
:101A7000694908700846007820B94FF47A70FEF77B
:101A800090FB2AE064480078FF2804D14FF47A7074
:101A9000FEF774FB21E05F48007820B94FF47A70BC
:101AA000FEF792FB19E05B480078FF2804D14FF461
:101AB0007A70FEF79CFB10E00B2000F0FDF820B1DF
:101AC0004FF47A70FEF7A6FB07E0092000F0F4F867
:101AD00018B14FF47A70FEF7B0FB052000F0E6F87D
:101AE0004E49087008460078FF280FD1544B512208
:101AF00054A157A0FFF7F6FD5EA0FFF7F3FD5FA02E
:101B0000FFF7F0FD0320FFF703F811E043480078EA
:101B100070B94B4B54224BA14DA0FFF7E3FD58A0E9
:101B2000FFF7E0FD55A0FFF7DDFD0320FEF762FFA4
:101B3000062000F0BBF83A4908700846007888B9DA
:101B40003F4B5A223FA142A0FFF7CCFD4EA0FFF72A
:101B5000C9FD4AA000E040E0FFF7C4FD0320FFF705
:101B6000ADF812E02E480078FF280ED1344B5D22EC
:101B700034A137A0FFF7B6FD45A0FFF7B3FD3FA0A6
:101B8000FFF7B0FD0320FFF751F80C2000F094F8A8
:101B900078B12B4B63222BA12DA0FFF7A3FD3EA014
:101BA000FFF7A0FD35A0FFF79DFD0320FEF7F8FF2E
:101BB00022E00A2000F080F8F0B1214B662221A13A
:101BC00023A0FFF78FFD36A0FFF78CFD2BA0FFF7BA
:101BD00089FD0320FEF756FF0EE000200A49086049
:101BE0004FF47A70FFF79CFE01202F49C1F8B40131
:101BF0004FF47A70FFF794FE0448007809490870A2
:101C00000A20FFF78DFEFFE6B4012242E10000202A
:101C1000E0000020DC000020DD000020DE000020CD
:101C2000DF000020E2000020BCECB2E9C4A3CABD82
:101C3000CAC7B7F1B7A2C9FAB1E4BBAF0000000050
:101C4000691E0008557365725C6D61696E2E6300D4
:101C50003C3C46696C653A257320204C696E653AB8
:101C60002564202046756E6374696F6E3A25733E55
:101C70003E200000CCA7C6F0000000000D0A0000C6
:101C8000B7C5CFC200000000C9ECD5B90000000004
:101C9000CAD5CBF500000000BCD0D7A600000000DC
:101CA000CBC9D7A60000000000002242014601482F
:101CB000405C7047B00100200146012901DA002094
:101CC0007047481E024A02EBC0000079F8E70000A6
:101CD0004000002070B50025FEF746FDFEF7A8FD88
:101CE0001348C0781249097940EA01201149086077
:101CF000042419E0104810F83400401E012101FAB4
:101D000000F00C490968084038B901200A4901EB84
:101D1000C4014860601CC5B204E00020064901EB24
:101D2000C4014860601CC4B2102CE3DB284670BDBF
:101D3000B0010020300000204000002010B51648FF
:101D40004078732803D101201449087021E012481B
:101D50004078412803D102201049087019E0002082
:101D60000E4908700E480068401C0D49086008467E
:101D7000006864280DDD002008600A4BC0220AA11B
:101D80000DA0FFF7AFFC15A0FFF7ACFC16A0FFF706
:101D9000A9FC0248007810BDB001002034000020EA
:101DA000C0000020EC1D0008486172647761726514
:101DB0005C7073322E6300003C3C46696C653A25CA
:101DC0007320204C696E653A2564202046756E6349
:101DD00074696F6E3A25733E3E200000CAD6B1FA90
:101DE000D0C5BAC5B6AACAA70D0A00007073325F83
:101DF0006D6F64655F67657400526F626F744172E6
:101E00006D5F526169736548616E6400526F626F05
:101E10007441726D5F44726F7048616E6400526FFE
:101E2000626F7441726D5F53747265636848616E6E
:101E30006400526F626F7441726D5F5368696E6BBC
:101E400048616E6400526F626F7441726D5F5368D7
:101E5000616B6548616E6400526F626F7441726DB0
:101E60005F4C657448616E64006D61696E000000CE
:101E7000901E000800000020E80000000417000881
:101E8000781F0008E8000020E00400001417000894
:101E900000A24A0400000000000000000102030448
:101EA0000607080900000000010203040102030400
:101EB00006070809020406080000000000000000F0
:101EC00000000000000142000000000000000000CF
:101ED00001000000000000000200000000000000FF
:101EE00003000000000000000400000000000000EB
:101EF00005000000000000000600000000000000D7
:101F000007000000000000000800000000000000C2
:101F100009000000000000000A00000000000000AE
:101F20000B000000000000000C000000000000009A
:101F30000D000000000000000E0000000000000086
:101F40000F00000000000000100000000000000072
:101F500000000000C8009600C800E6009600780067
:101F60009600E600B4008C00B400E600000000001B
:081F7000000000000000000069
:04000005080000ED02
:00000001FF
