:020000040800F2
:10000000C005002005010008F1020008AF02000849
:10001000ED020008790100089D0B000800000000B7
:10002000000000000000000000000000B107000810
:100030007D01000800000000BB060008C50800089C
:100040001F0100081F0100081F0100081F01000810
:100050001F0100081F0100081F0100081F01000800
:100060001F0100081F0100081F0100081F010008F0
:100070001F0100081F0100081F0100081F010008E0
:100080001F0100081F0100081F0100081F010008D0
:100090001F0100081F0100081F0100081F010008C0
:1000A0001F0100081F0100081F0100081F010008B0
:1000B0001F0100081F0100081F0100081F010008A0
:1000C0001F0100081F0100081F0100081F01000890
:1000D0001F010008290900081F0100081F0100086E
:1000E0001F0100081F0100081F010008DFF810D0E1
:1000F00000F030F80048004725100008AFF30080FA
:10010000C00500200648804706480047FEE7FEE796
:10011000FEE7FEE7FEE7FEE7FEE7FEE7FEE7FEE7B7
:10012000C9080008ED00000830B50B460146002064
:100130002022012409E021FA02F59D4205D303FAA9
:1001400002F5491B04FA02F52844151EA2F101022A
:10015000F1DC30BD064C074D06E0E06840F00103DD
:1001600094E8070098471034AC42F6D3FFF7C2FF7B
:10017000C8110008E811000800BFFEE770472DE92C
:10018000F04102460025002600200023002400271D
:1001900091F803C00CF00F0591F803C00CF0100C9F
:1001A000BCF1000F03D091F802C04CEA050591F8AC
:1001B00000C0BCF1000F31D0146800202BE04FF0DC
:1001C000010C0CFA00F3B1F800C00CEA03069E42E1
:1001D00020D183004FF00F0C0CFA03F7BC4305FA53
:1001E00003FC4CEA040491F803C0BCF1280F06D1CB
:1001F0004FF0010C0CFA00FCC2F814C00AE091F8B0
:1002000003C0BCF1480F05D14FF0010C0CFA00FC03
:10021000C2F810C0401C0828D1D31460B1F800C047
:10022000BCF1FF0F34DD546800202EE000F1080C13
:100230004FF0010808FA0CF3B1F800C00CEA03060D
:100240009E4221D183004FF00F0C0CFA03F7BC4300
:1002500005FA03FC4CEA040491F803C0BCF1280F32
:1002600005D100F1080C08FA0CF8C2F8148091F8D6
:1002700003C0BCF1480F07D100F1080C4FF0010892
:1002800008FA0CF8C2F81080401C0828CED354603D
:10029000BDE8F0810246002093680B400BB10120BD
:1002A00000E000207047416170470161704700BF66
:1002B000FEE700000B48806940F0100009498861A2
:1002C0000948406820F470000749486008464068C3
:1002D00040F4401048600846C06840F40050C860D0
:1002E00070470000001002400010014000BFFEE710
:1002F0007047000002490143024A11607047000044
:100300000000FA050CED00E010B54FF480510248F2
:10031000FFF7CBFF10BD0000000C014010B54FF4FB
:1003200080510248FFF7BFFF10BD0000000C0140E4
:10033000002004E00021034A1154411CC8B20928DE
:10034000F8DB7047A80100202DE9F04104460125A3
:100350000026002720E004F0010010B100F02EF884
:1003600001E000F035F8641000F010F9052000F00D
:1003700021FE00F015F9052000F01CFE00F006F942
:1003800000F010F808B17019C6B26806050E10200A
:1003900000F010FE781CC7B2072FDCDD3046BDE848
:1003A000F081000010B54FF400410348FFF772FFE1
:1003B0000446204610BD0000000C014010B54FF46B
:1003C00080410248FFF771FF10BD0000000C0140A2
:1003D00010B54FF480410248FFF765FF10BD0000E3
:1003E000000C014010B5FFF7A3FF00F0ADF80F4877
:1003F000C0780E49097940EA01200D4908600024BF
:100400000FE00C4810F83400401E012101FA00F002
:1004100007490968084010B9601CC0B210BD601CD3
:10042000C4B2102CEDDB0020F8E70000A80100208A
:10043000300000204000002010B5FFF76FFF1020B3
:1004400000F0B8FD0120FFF77FFF4320FFF77CFF9E
:100450000020FFF779FF0120FFF776FF0020FFF76C
:1004600073FF0020FFF770FF0020FFF76DFF0020F3
:10047000FFF76AFF0020FFF767FFFFF745FF102037
:1004800000F098FD10BD10B5FFF748FF102000F0F8
:1004900091FD0120FFF758FF4320FFF755FF002093
:1004A000FFF752FF0020FFF74FFF5A20FFF74CFFE6
:1004B0005A20FFF749FF5A20FFF746FF5A20FFF75F
:1004C00043FF5A20FFF740FFFFF71EFF102000F008
:1004D00071FD10BD08B50121082000F0EFF84FF4C0
:1004E000E040ADF8000010208DF8030003208DF8E7
:1004F000020069460848FFF742FE4FF40040ADF89D
:10050000000048208DF8030003208DF802006946A2
:100510000148FFF734FE08BD000C014010B5FFF79D
:10052000D9FF00F033F8FFF7EFFE00F043F800F0DA
:1005300041F800F03FF8FFF77FFF00F056F800F0B9
:10054000A1F8FFF7A0FF10BD10B50024FFF7E6FEED
:1005500000BF0FE0022C06DA0A49085DFFF7F4FE3F
:100560000949085504E00020FFF7EEFE064908554A
:10057000601CC4B2092CEDDBFFF7C6FE102000F0B2
:1005800019FD10BD35000020A801002010B54FF462
:1005900000510248FFF789FE10BD0000000C014029
:1005A00010B54FF400510248FFF77DFE10BD00006A
:1005B000000C014010B5FFF7B1FE102000F0FAFC6E
:1005C0000120FFF7C1FE4220FFF7BEFE0020FFF72B
:1005D000BBFE0020FFF7B8FE0020FFF7B5FEFFF7D7
:1005E00093FE102000F0E6FC10BD10B5FFF796FE5C
:1005F0000120FFF7A9FE4420FFF7A6FE0020FFF729
:10060000A3FE0120FFF7A0FEEE20FFF79DFE0020D5
:10061000FFF79AFE0020FFF797FE0020FFF794FEF9
:100620000020FFF791FEFFF76FFE102000F0C2FCE4
:1006300010BD70B505460C46FFF770FE102000F0A7
:10064000B9FC0120FFF780FE4220FFF77DFE00206D
:10065000FFF77AFE2846FFF777FE2046FFF774FE85
:100660000020FFF771FE0020FFF76EFE0020FFF76D
:100670006BFE0020FFF768FEFFF746FE102000F03B
:1006800099FC70BD10B5FFF749FE102000F092FCF8
:100690000120FFF759FE4D20FFF756FE0020FFF71F
:1006A00053FE0020FFF750FE0120FFF74DFEFFF73D
:1006B0002BFE102000F07EFC10BD704729B1064AC9
:1006C00092690243044B9A6104E0034A92698243AF
:1006D000014B9A61704700000010024030B50021C4
:1006E0000022002400232D4D6D6805F00C0121B17E
:1006F000042905D0082923D105E0294D056022E011
:10070000274D05601FE0254D6D6805F47012234DDF
:100710006D6805F48034022505EB92421CB9214D29
:10072000554305600BE01D4D6D6805F400351DB1A6
:100730001C4D5543056002E0194D5543056002E02C
:10074000174D056000BF00BF144D6D6805F0F00146
:100750000909154D6B5C0568DD4045600F4D6D68FE
:1007600005F4E061090A104D6B5C4568DD40856069
:100770000A4D6D6805F46051C90A0B4D6B5C456804
:10078000DD40C560054D6D6805F44041890B074D9E
:100790006B5CC568B5FBF3F5056130BD0010024028
:1007A00000127A0000093D001400002024000020FF
:1007B000704710B500F002F810BD00000CB5002025
:1007C000019000903348006840F48030314908605F
:1007D00000BF3048006800F4003000900198401CD1
:1007E0000190009818B90198B0F5A06FF1D129488F
:1007F000006800F4003010B10120009001E00020FA
:1008000000900098012843D12348006840F0100070
:10081000214908600846006820F003000860084687
:10082000006840F0020008601A48406819494860B2
:100830000846406848600846406840F48060486068
:100840000846406820F47C1048600846406840F440
:10085000E81048600846006840F08070086000BFFB
:100860000C48006800F000700028F9D00948406882
:1008700020F00300074948600846406840F0020045
:10088000486000BF0348406800F00C000828F9D118
:100890000CBD00000010024000200240042808D1D6
:1008A0004FF0E021096941F004014FF0E0221161AD
:1008B00007E04FF0E021096921F004014FF0E02248
:1008C000116170477047000010B51348006840F090
:1008D00001001149086008464068104908400E4967
:1008E0004860084600680E4908400B490860084601
:1008F000006820F4802008600846406820F4FE006C
:1009000048604FF41F008860FFF753FF4FF000600E
:100910000449086010BD0000001002400000FFF80C
:10092000FFFFF6FE08ED00E010B540F225511D482E
:1009300000F057F810B31B4800F0EAF8C4B21A48A8
:10094000008800F40040C8B91748008800F48040CF
:1009500060B10A2C03D000201349088020E012481F
:10096000008840F400401049088019E00D2C06D1A1
:100970000D48008840F480400B49088010E00A4888
:100980000088C0F30D0009490C5407480088401C3A
:100990000549088008460088C72801DD0020088036
:1009A00010BD0000003801402C000020E0000020B5
:1009B00021B1828942F40052828104E082894DF69D
:1009C000FF731A408281704702460020B1F5007F14
:1009D00000D100BF13880B400BB1012000E00020C4
:1009E000704770B50246002400230025002040F621
:1009F0006A16B14200D100BFC1F3421501F01F03D6
:100A0000012606FA03F3012D02D19689334006E050
:100A1000022D02D1168A334001E0968A33400C122F
:100A2000012606FA04F41688344013B10CB10120F3
:100A300000E0002070BD00002DE9F04786B00546BB
:100A40000E460024A24600BFA1460027B08900B18F
:100A500000BF2F462C8A4CF6FF700440F0880443F8
:100A60002C82AC894EF6F3100440B08831890843DB
:100A7000718908430443AC81AC8A4FF6FF400440BF
:100A8000B0890443AC8201A8FFF728FE1F488742C3
:100A900002D1DDF810A001E0DDF80CA0A88900F477
:100AA000004040B10AEBCA0000EB0A10316849006F
:100AB000B0FBF1F807E00AEBCA0000EB0A1031685E
:100AC0008900B0FBF1F86420B8FBF0F004012009C4
:100AD000642101FB1089A88900F4004040B1322054
:100AE00000EBC900B0FBF1F000F00700044308E0A0
:100AF000322000EB09106421B0FBF1F000F00F0090
:100B000004432C8106B0BDE8F087000000380140A6
:100B100001468888C0F308007047C1F3080282804C
:100B20007047000010B586B00446012144F204006D
:100B3000FFF7C4FD4FF40070ADF8140003208DF8EA
:100B4000160018208DF8170005A91248FFF717FBAB
:100B50004FF48060ADF8140004208DF8170005A94B
:100B60000C48FFF70CFB01940020ADF80800ADF82D
:100B70000A00ADF80C00ADF810000820ADF80E002A
:100B800001A90548FFF758FF01210348FFF710FFAF
:100B900006B010BD000801400038014000BFFEE76C
:100BA0000FB4054B10B503A9044A029800F018F8D9
:100BB00010BC5DF814FB000001100008DC000020F0
:100BC00002E008C8121F08C1002AFAD17047704716
:100BD000002001E001C1121F002AFBD17047000074
:100BE0002DE9FF4F8BB088460546002606E02528F4
:100BF0000BD0DDE90D1290476D1C761C287800287B
:100C0000F5D10FB03046BDE8F08F0024A146A246D2
:100C10000122AE4900E0044315F8013F203B02FAEF
:100C200003F00842F7D128782A2810D06FF02F025D
:100C30002878A0F13001092915D809EB890102EBC8
:100C4000410144F0020400EB01096D1CF0E758F883
:100C5000041B5FEA010903D544F40054C9F10009FB
:100C600044F002046D1C28782E2817D115F8010FC6
:100C700044F004042A280ED06FF02F022878A0F147
:100C8000300109290AD80AEB8A0102EB410100EB85
:100C9000010A6D1CF2E758F804AB6D1C28786C282B
:100CA0000FD006DC4C2817D068280DD06A2814D144
:100CB00004E0742810D07A280FD10DE044F4001419
:100CC0000AE044F4801401E044F44014697881425D
:100CD00002D104F580146D1C6D1C2878692865D03C
:100CE00006DC00288DD0632827D0642806D15DE07B
:100CF0006E2808D073282AD0752877D0DDE90D1228
:100D00009047761CE0E0C4F30250022809D0032883
:100D10000DD0D8F8001004280DD00E6008F104089A
:100D2000D2E0D8F80010F217C1E90062F6E7D8F86F
:100D300000100E80F2E70E70F0E718F8041B8DF833
:100D4000001000208DF80100EB46012003E058F868
:100D500004BB4FF0FF3061074FF0000701D40AE0F9
:100D60007F1C57450DDA8742FADB1BF80710002974
:100D7000F6D106E07F1C8742FCDB1BF80710002938
:100D8000F8D1DDE90D23A9EB07008146214600F0EB
:100D9000B1F83044C61904E0DDE90D121BF8010B6F
:100DA00090477F1EF8D22146484688E058F8040B49
:100DB000C4F302514FF00A0B032900D100B20429F9
:100DC00000D140B2002802DA40422D2102E0210584
:100DD00005D52B218DF82410012104E006E0E10760
:100DE00010D02021F6E708AF089113E058F8040B63
:100DF000C4F302514FF00A0B032900D180B2042939
:100E000000D1C0B20021EEE75946FFF78DF930312D
:100E100007F8011D0028F7D1ADEB070000F1200B0A
:100E2000600702D524F4803401E04FF0010ADA456E
:100E300002DDAAEB0B0000E00020824600EB0B0174
:100E400008980144A9EB01000A90E00306D4DDE90B
:100E50000D2321460A9800F04DF806444FF0000992
:100E600008E009A911F80900DDE90D12904709F120
:100E70000109761C08998945F3DBE0030CD5DDE90F
:100E80000D2321460A9800F035F8064404E0DDE918
:100E90000D1230209047761CBAF10001AAF1010A28
:100EA000F5DC05E0DDE90D1217F8010B9047761C23
:100EB000BBF10001ABF1010BF4DC0A982146DDE93E
:100EC0000D2300F005F806446D1C97E60928010083
:100ED0002DE9F041044600251E461746880404D437
:100EE00005E039462020B0476D1C641EF9D5284620
:100EF000BDE8F0812DE9F041044600251E469046EC
:100F0000C80301D5302700E02027880404D505E078
:100F100041463846B0476D1C641EF9D52846BDE8E9
:100F2000F081000010B56FF00400FFF7B7FC0A482D
:100F300000680A49B0FBF1F00949087008460078DA
:100F400000EB4001C1EBC0104FF6FF7101EAC00099
:100F50000449088010BD00000000002000127A0043
:100F6000280000202A0000200146114A12884A4326
:100F70004FF0E0235A6100229A611A46126942F04A
:100F800001021A6100BF4FF0E022106900F0010277
:100F90001AB100F48032002AF5D04FF0E022126935
:100FA00022F001024FF0E0231A6100229A6170479B
:100FB0002A0000200146114A12784A434FF0E023EC
:100FC0005A6100229A611A46126942F001021A61BE
:100FD00000BF4FF0E022106900F001021AB100F4E6
:100FE0008032002AF5D04FF0E022126922F001028F
:100FF0004FF0E0231A6100229A6170472800002018
:1010000070B504460D46E1B20548FFF786FD00BF06
:1010100080210348FFF7D8FC0028F9D0204670BD96
:101020000038014008B54FF4A060FFF763F9FFF7FF
:1010300079FF4FF4E130FFF775FDFFF76FFAFFF727
:1010400039F92A4B15222AA12CA0FFF7A9FD34A0BB
:10105000FFF7A6FD49E0FFF7C5F9414908700846CA
:101060000078002827D03F4841783FA0FFF798FD3F
:101070003B48017843A0FFF793FD394800780B28DF
:1010800008D141210020FFF7D4FA4FF4FA70FFF79E
:101090006BFF10E0324800780C2808D100210120B5
:1010A000FFF7C7FA4FF4FA70FFF75EFF03E0002185
:1010B0000846FFF7BEFA062000F07CF8044605203B
:1010C00000F078F80546082000F074F8064607207E
:1010D00000F070F807462B463246394630A000949F
:1010E000FFF75EFD3220FFF73FFFB4E7C0110008B5
:1010F000557365725C6D61696E2E63003C3C466998
:101100006C653A257320204C696E653A2564202071
:1011100046756E6374696F6E3A25733E3E2000001B
:101120004E564943B7D6D7E9CDEAB1CF0D0A505351
:1011300032B3F5CABCBBAFCDEAB1CF0D0AB5E7BB40
:10114000FAB3F5CABCBBAFCDEAB1CF0D0AB6E6BB68
:10115000FAB3F5CABCBBAFCDEAB1CF0D0A000000AF
:10116000D8000020A801002020200D0A20202025E2
:10117000642020697320206C6967687420200D0A40
:101180000000000020200D0A202020256420206976
:101190007320207072657373656420200D0A00004F
:1011A00020253564202535642025356420253564C7
:1011B0000D0A000001460148405C7047A80100206C
:1011C0006D61696E00000000E81100080000002059
:1011D000E0000000C00B0008C8120008E00000207A
:1011E000E0040000D00B000800A24A040000000048
:1011F00000000000010203040607080900000000C7
:101200000102030401020304060708090204060898
:10121000000000000000000000000000000142008B
:1012200000000000000000000100000000000000BD
:1012300002000000000000000300000000000000A9
:101240000400000000000000050000000000000095
:101250000600000000000000070000000000000081
:10126000080000000000000009000000000000006D
:101270000A000000000000000B0000000000000059
:101280000C000000000000000D0000000000000045
:101290000E000000000000000F0000000000000031
:1012A000100000000000000000000000000000002E
:1012B000000000000000000000000000000000002E
:0812C000000000000000000026
:04000005080000ED02
:00000001FF
