:020000040800F2
:10000000A805002005010008B7020008AF0200089B
:10001000B302000879010008A90A000800000000E6
:10002000000000000000000000000000BD06000805
:100030007D01000800000000C5050008D107000888
:100040001F0100081F0100081F0100081F01000810
:100050001F0100081F0100081F0100081F01000800
:100060001F0100081F0100081F0100081F010008F0
:100070001F0100081F0100081F0100081F010008E0
:100080001F0100081F0100081F0100081F010008D0
:100090001F0100081F0100081F0100081F010008C0
:1000A0001F0100081F0100081F0100081F010008B0
:1000B0001F0100081F0100081F0100081F010008A0
:1000C0001F0100081F0100081F0100081F01000890
:1000D0001F010008350800081F0100081F01000863
:1000E0001F0100081F0100081F010008DFF810D0E1
:1000F00000F030F800480047590D0008AFF30080C9
:10010000A80500200648804706480047FEE7FEE7AE
:10011000FEE7FEE7FEE7FEE7FEE7FEE7FEE7FEE7B7
:10012000D5070008ED00000830B50B460146002059
:100130002022012409E021FA02F59D4205D303FAA9
:1001400002F5491B04FA02F52844151EA2F101022A
:10015000F1DC30BD064C074D06E0E06840F00103DD
:1001600094E8070098471034AC42F6D3FFF7C2FF7B
:10017000040E0008240E000800BFFEE770472DE9BA
:10018000F04102460025002600200023002400271D
:1001900091F803C00CF00F0591F803C00CF0100C9F
:1001A000BCF1000F03D091F802C04CEA050591F8AC
:1001B00000C0BCF1000F31D0146800202BE04FF0DC
:1001C000010C0CFA00F3B1F800C00CEA03069E42E1
:1001D00020D183004FF00F0C0CFA03F7BC4305FA53
:1001E00003FC4CEA040491F803C0BCF1280F06D1CB
:1001F0004FF0010C0CFA00FCC2F814C00AE091F8B0
:1002000003C0BCF1480F05D14FF0010C0CFA00FC03
:10021000C2F810C0401C0828D1D31460B1F800C047
:10022000BCF1FF0F34DD546800202EE000F1080C13
:100230004FF0010808FA0CF3B1F800C00CEA03060D
:100240009E4221D183004FF00F0C0CFA03F7BC4300
:1002500005FA03FC4CEA040491F803C0BCF1280F32
:1002600005D100F1080C08FA0CF8C2F8148091F8D6
:1002700003C0BCF1480F07D100F1080C4FF0010892
:1002800008FA0CF8C2F81080401C0828CED354603D
:10029000BDE8F0810246002093680B400BB10120BD
:1002A00000E000207047416170470161704700BF66
:1002B000FEE700BFFEE7704702490143024A1160B2
:1002C000704700000000FA050CED00E010B54FF497
:1002D00080510248FFF7E9FF10BD0000000C01400B
:1002E00010B54FF480510248FFF7DDFF10BD00004C
:1002F000000C01402DE9F0410446012500260027AD
:1003000020E004F0010010B100F02EF801E000F050
:1003100035F8641000F0E8F8052000F0E5FC00F086
:10032000EDF8052000F0E0FC00F0DEF800F010F839
:1003300008B17019C6B26806050E102000F0D4FC92
:10034000781CC7B2072FDCDD3046BDE8F081000025
:1003500010B54FF400410348FFF79CFF04462046C8
:1003600010BD0000000C014010B54FF48041024860
:10037000FFF79BFF10BD0000000C014010B54FF4CB
:1003800080410248FFF78FFF10BD0000000C0140C4
:1003900010B5FFF7A5FF102000F0A6FC0120FFF725
:1003A000A9FF4320FFF7A6FF0020FFF7A3FF0120CE
:1003B000FFF7A0FF0020FFF79DFF0020FFF79AFF47
:1003C0000020FFF797FF0020FFF794FF0020FFF7C2
:1003D00091FFFFF77BFF102000F086FC10BD10B5E9
:1003E000FFF77EFF102000F07FFC0120FFF782FF67
:1003F0004320FFF77FFF0020FFF77CFF0020FFF77F
:1004000079FF5A20FFF776FF5A20FFF773FF5A2033
:10041000FFF770FF5A20FFF76DFF5A20FFF76AFFC2
:10042000FFF754FF102000F05FFC10BD08B501215C
:10043000082000F0C9F84FF4E040ADF800001020AB
:100440008DF8030003208DF8020069460848FFF785
:1004500096FE4FF40040ADF8000048208DF80300F0
:1004600003208DF8020069460148FFF788FE08BDA9
:10047000000C014010B5FFF7D9FF00F035F8FFF789
:1004800025FF00F045F800F043F800F041F8FFF7D1
:100490007FFF00F058F800F07AF8FFF7A0FF00F0B7
:1004A00001F810BD10B50024FFF71AFF00BF0FE0E0
:1004B000022C06DA0A49085DFFF71CFF09490855B6
:1004C00004E00020FFF716FF06490855601CC4B27F
:1004D000092CEDDBFFF7FAFE102000F005FC10BD43
:1004E000350000209001002010B54FF40051024863
:1004F000FFF7DBFE10BD0000000C014010B54FF40B
:1005000000510248FFF7CFFE10BD0000000C014073
:1005100010B5FFF7E5FE102000F0E6FB0120FFF725
:10052000E9FE4220FFF7E6FE0020FFF7E3FE002091
:10053000FFF7E0FE0020FFF7DDFEFFF7C7FE10200B
:1005400000F0D2FB10BD10B5FFF7CAFE0120FFF787
:10055000D1FE4420FFF7CEFE0020FFF7CBFE0120A6
:10056000FFF7C8FEEE20FFF7C5FE0020FFF7C2FE32
:100570000020FFF7BFFE0020FFF7BCFE0020FFF7C2
:10058000B9FEFFF7A3FE102000F0AEFB10BD10B5C2
:10059000FFF7A6FE102000F0A7FB0120FFF7AAFE40
:1005A0004D20FFF7A7FE0020FFF7A4FE0020FFF775
:1005B000A1FE0120FFF79EFEFFF788FE102000F04D
:1005C00093FB10BD7047000029B1064A92690243AF
:1005D000044B9A6104E0034A92698243014B9A6199
:1005E000704700000010024030B5002100220024B6
:1005F00000232D4D6D6805F00C0121B1042905D0B3
:10060000082923D105E0294D056022E0274D05602A
:100610001FE0254D6D6805F47012234D6D6805F4DB
:100620008034022505EB92421CB9214D55430560EB
:100630000BE01D4D6D6805F400351DB11C4D554393
:10064000056002E0194D5543056002E0174D056055
:1006500000BF00BF144D6D6805F0F0010909154D8C
:100660006B5C0568DD4045600F4D6D6805F4E06129
:10067000090A104D6B5C4568DD4085600A4D6D6868
:1006800005F46051C90A0B4D6B5C4568DD40C560DF
:10069000054D6D6805F44041890B074D6B5CC568DD
:1006A000B5FBF3F5056130BD0010024000127A0081
:1006B00000093D001400002024000020704710B500
:1006C00000F002F810BD00000CB500200190009071
:1006D0003348006840F480303149086000BF30483A
:1006E000006800F4003000900198401C01900098D0
:1006F00018B90198B0F5A06FF1D12948006800F44D
:10070000003010B10120009001E00020009000981E
:10071000012843D12348006840F0100021490860B7
:100720000846006820F0030008600846006840F0B2
:10073000020008601A484068194948600846406845
:1007400048600846406840F4806048600846406859
:1007500020F47C1048600846406840F4E810486087
:100760000846006840F08070086000BF0C480068D0
:1007700000F000700028F9D00948406820F003001C
:10078000074948600846406840F00200486000BFE2
:100790000348406800F00C000828F9D10CBD0000A7
:1007A0000010024000200240042808D14FF0E02150
:1007B000096941F004014FF0E022116107E04FF0B8
:1007C000E021096921F004014FF0E0221161704736
:1007D0007047000010B51348006840F0010011494F
:1007E000086008464068104908400E4948600846BD
:1007F00000680E4908400B4908600846006820F46C
:10080000802008600846406820F4FE0048604FF4ED
:100810001F008860FFF753FF4FF000600449086035
:1008200010BD0000001002400000FFF8FFFFF6FEC0
:1008300008ED00E010B540F225511D4800F057F8D2
:1008400010B31B4800F0EAF8C4B21A48008800F45C
:100850000040C8B91748008800F4804060B10A2CF5
:1008600003D000201349088020E01248008840F49B
:1008700000401049088019E00D2C06D10D48008871
:1008800040F480400B49088010E00A480088C0F31B
:100890000D0009490C5407480088401C0549088090
:1008A00008460088C72801DD0020088010BD000030
:1008B000003801402C000020C800002021B18289AE
:1008C00042F40052828104E082894DF6FF731A409F
:1008D0008281704702460020B1F5007F00D100BF41
:1008E00013880B400BB1012000E00020704770B569
:1008F0000246002400230025002040F66A16B1427B
:1009000000D100BFC1F3421501F01F03012606FA12
:1009100003F3012D02D19689334006E0022D02D166
:10092000168A334001E0968A33400C12012606FAFB
:1009300004F41688344013B10CB1012000E000200B
:1009400070BD00002DE9F04786B005460E46002434
:10095000A24600BFA1460027B08900B100BF2F46C4
:100960002C8A4CF6FF700440F08804432C82AC893A
:100970004EF6F3100440B08831890843718908436A
:100980000443AC81AC8A4FF6FF400440B089044375
:10099000AC8201A8FFF728FE1F48874202D1DDF88C
:1009A00010A001E0DDF80CA0A88900F4004040B1DF
:1009B0000AEBCA0000EB0A1031684900B0FBF1F8FD
:1009C00007E00AEBCA0000EB0A1031688900B0FBAF
:1009D000F1F86420B8FBF0F004012009642101FB68
:1009E0001089A88900F4004040B1322000EBC90012
:1009F000B0FBF1F000F00700044308E0322000EB08
:100A000009106421B0FBF1F000F00F0004432C81C9
:100A100006B0BDE8F0870000003801400146888834
:100A2000C0F308007047C1F30802828070470000DD
:100A300010B586B00446012144F20400FFF7C4FD5E
:100A40004FF40070ADF8140003208DF81600182044
:100A50008DF8170005A91248FFF791FB4FF480604D
:100A6000ADF8140004208DF8170005A90C48FFF715
:100A700086FB01940020ADF80800ADF80A00ADF83F
:100A80000C00ADF810000820ADF80E0001A90548D3
:100A9000FFF758FF01210348FFF710FF06B010BD14
:100AA000000801400038014000BFFEE70FB4054BCD
:100AB00010B503A9044A029800F018F810BC5DF8BC
:100AC00014FB0000350D0008C400002002E008C837
:100AD000121F08C1002AFAD170477047002001E0B8
:100AE00001C1121F002AFBD1704700002DE9FF4F02
:100AF0008BB09A460F460546002606E025280BD007
:100B000052460D9990476D1C761C28780028F5D127
:100B10000FB03046BDE8F08F0024A04601226049A6
:100B200000E0044315F8013F203B02FA03F00842BD
:100B3000F7D128782E2817D115F8010F44F00404B6
:100B40002A280ED06FF02F022878A0F13001092951
:100B50000AD808EB880102EB410100EB01086D1C8B
:100B6000F2E757F8048B6D1C287869283ED006DC24
:100B70000028CDD063280BD0642804D136E0732838
:100B800010D075284BD052460D999047761C85E0C1
:100B900017F8040B8DF8000000208DF80100E946DD
:100BA000012003E057F8049B4FF0FF3061074FF03E
:100BB000000401D40AE0641C44450DDA8442FADBE7
:100BC00019F804100029F6D106E0641C8442FCDB0D
:100BD00019F804100029F8D1264404E019F8010B93
:100BE00052460D999047641EF8D257E001CF4FF05E
:100BF0000A0B002802DA40422D2102E0210504D52B
:100C00002B218DF82410012103E0E10705D02021DC
:100C1000F7E70DF1200908910CE00021F9E701CF79
:100C20004FF00A0BF9E75946FFF77EFA01F130025F
:100C300009F8012D0028F6D1ADEB090000F1200BD9
:100C4000600701D44FF00108D84502DDA8EB0B0086
:100C500000E000208046002406E009A85246005D1E
:100C60000D999047641C761C08988442F5DB04E0DB
:100C7000302052460D999047761CB8F10001A8F13A
:100C80000108F5DC05E019F8010B52460D99904773
:100C9000761CBBF10001ABF1010BF4DC6D1C34E7F9
:100CA0000928010010B56FF00400FFF77DFD0A4828
:100CB00000680A49B0FBF1F009490870084600785D
:100CC00000EB4001C1EBC0104FF6FF7101EAC0001C
:100CD0000449088010BD00000000002000127A00C6
:100CE000280000202A0000200146114A12784A43B9
:100CF0004FF0E0235A6100229A611A46126942F0CD
:100D000001021A6100BF4FF0E022106900F00102F9
:100D10001AB100F48032002AF5D04FF0E0221269B7
:100D200022F001024FF0E0231A6100229A6170471D
:100D30002800002070B504460D46E1B20548FFF7D3
:100D400072FE00BF80210348FFF7C4FD0028F9D0E0
:100D5000204670BD003801404FF4A060FFF7ACFAA8
:100D6000FFF7A0FF4FF4E130FFF762FEFFF782FBD1
:100D7000054B0F2205A108A0FFF798FE0FA0FFF773
:100D800095FE00BFFEE70000FC0D0008557365727C
:100D90005C6D61696E2E63003C3C46696C653A256A
:100DA0007320204C696E653A2564202046756E6379
:100DB00074696F6E3A25733E3E2000004E564943DB
:100DC000B7D6D7E9CDEAB1CF0D0A505332B3F5CA41
:100DD000BCBBAFCDEAB1CF0D0AB5E7BBFAB3F5CADC
:100DE000BCBBAFCDEAB1CF0D0AB6E6BBFAB3F5CACC
:100DF000BCBBAFCDEAB1CF0D0A0000006D61696EDA
:100E000000000000240E000800000020C8000000C0
:100E1000CC0A0008EC0E0008C8000020E004000026
:100E2000DC0A000800A24A040000000000000000E4
:100E30000102030406070809000000000102030480
:100E40000102030406070809020406080000000066
:100E5000000000000000000000014200000000004F
:100E6000000000000100000000000000020000007F
:100E7000000000000300000000000000040000006B
:100E80000000000005000000000000000600000057
:100E90000000000007000000000000000800000043
:100EA0000000000009000000000000000A0000002F
:100EB000000000000B000000000000000C0000001B
:100EC000000000000D000000000000000E00000007
:100ED000000000000F0000000000000010000000F3
:0C0EE00000000000000000000000000006
:04000005080000ED02
:00000001FF
